:020000040800F2
:10000000180400209D010008F30B00083D0B0008B8
:10001000F10B0008A9020008210D000800000000F3
:10002000000000000000000000000000570C000865
:100030000D03000800000000550C0008590C0008D2
:10004000B7010008B7010008B7010008B7010008B0
:10005000B7010008B7010008B7010008B7010008A0
:10006000B70100080F030008B7010008B701000836
:10007000B7010008B7010008B7010008B701000880
:10008000B7010008B7010008B7010008B701000870
:10009000B7010008B7010008B7010008B701000860
:1000A000B7010008B7010008B7010008B701000850
:1000B000B7010008B7010008B7010008B701000840
:1000C000B7010008B7010008B7010008B701000830
:1000D000B7010008B7010008B7010008B701000820
:1000E000B7010008B7010008B7010008B701000810
:1000F000B7010008B7010008B7010008B701000800
:10010000B7010008B7010008B7010008B7010008EF
:10011000B7010008B7010008B7010008B7010008DF
:10012000B7010008B7010008B7010008B7010008CF
:10013000B70100080000000000000000B70100083F
:10014000B7010008B7010008B7010008B7010008AF
:10015000B7010008B7010008B7010008B70100089F
:10016000B7010008B7010008B7010008B70100088F
:10017000B7010008B70100080000000000000000FF
:10018000B7010008B7010008DFF80CD000F07AF8DA
:1001900000480047610D0008180400200648804709
:1001A00006480047FEE7FEE7FEE7FEE7FEE7FEE75C
:1001B000FEE7FEE7FEE7FEE7CD0C00088901000838
:1001C0002DE9F05F0546002092469B46884606468C
:1001D000814640241BE0284641464746224600F01F
:1001E00041F853465A46C01A914110D31146184659
:1001F000224600F028F82D1A67EB01084F462246E8
:100200000120002100F01FF817EB00094E41201ECD
:10021000A4F10104DFDC484631462A464346BDE8E6
:10022000F09FD2B201E000F8012B491EFBD27047CB
:100230000022F6E710B513460A4604461946FFF7B2
:10024000F0FF204610BD202A04DB203A00FA02F11C
:10025000002070479140C2F1200320FA03F31943B4
:1002600090407047202A04DB203A21FA02F0002156
:10027000704721FA02F3D040C2F1200291400843B6
:1002800019467047064C074D06E0E06840F0010350
:1002900094E8070098471034AC42F6D3FFF778FF94
:1002A000480E0008680E0008FEE7000000224FF428
:1002B0000041014800F030B9000402400022102142
:1002C000014800F029B900000004024000224FF468
:1002D0000051014800F020B90004024000224021F2
:1002E000014800F019B900000004024000224FF458
:1002F0008041014800F010B90004024000224FF490
:100300000041014800F008B9000002407047082091
:1003100000F01EB870B5044600F004F90546601CF4
:1003200002D004480078044400F0FCF8401BA042CE
:10033000FAD370BD0400002004480178491CC9B2FA
:100340000170012901D900210170704700000020CF
:10035000044910B50A68024202D00860FFF7ECFFBA
:1003600010BD0000143C01402DE9F84FDFF87CB1CE
:1003700000224FF001084FF0030A4FF00F090BF174
:10038000040E00BF0B6808FA02F42340A3426ED1AA
:100390004D68022D01D0122D0ED1D50800EB850C31
:1003A000DCF820505607F70E09FA07F6B5430E6938
:1003B000BE402E43CCF82060066855000F790AFA3B
:1003C00005FC07F0030726EA0C06AF403743076039
:1003D0004E68012E05D0022E03D0112E01D0122E10
:1003E0000ED18668CF6826EA0C06AF403743876097
:1003F0004668A6430C79C4F3001494403443446027
:10040000C6688C6826EA0C06AC403443C4604C686D
:10041000E40065D5364C256845F4804525602468A0
:1004200022F0030504F480440094324C2E19D6F8CF
:10043000084895072F0F09FA07F5AC432E4DA8423F
:1004400001D1002524E02D4DA84201D101251FE056
:100450002B4DA84201D102251AE02A4DA84201D114
:10046000032515E0284DA84202D1042510E037E00D
:10047000264DA84201D105250AE0254DA84201D10B
:10048000062505E0234DA84201D1072500E00825F7
:10049000BD402543C6F80858DBF800405D464E686D
:1004A0009C43F60300D51C432C60DEF800407546E3
:1004B0004E689C43B60300D51C432C600B4D083599
:1004C0002C684E689C43F60200D51C432C60074DF7
:1004D0000C352C684E689C43B60200D51C432C603A
:1004E000521C102AFFF44EAFBDE8F88F003C0140CB
:1004F0004438024000300140000002400004024045
:1005000000080240000C02400010024000140240AB
:1005100000180240001C02400AB1816170470904C2
:10052000FBE70000014880687047000004000020DD
:1005300002488168027811448160704704000020FD
:100540000B4810B5016841F400710160016841F485
:1005500080610160016841F480710160032000F056
:100560006FF8002000F006F800F024F8002010BD1D
:10057000003C024070B50D4D04464FF47A71287866
:10058000B1FBF0F00A490968B1FBF0F000F0C2FAE3
:1005900048B9102C07D200222146501E00F030F836
:1005A00000206C6070BD012070BD000004000020C0
:1005B000100000200A4808B5016841F4804101603C
:1005C000006800F4804000900548001F016841F079
:1005D00080510160006800F08050009008BD00006C
:1005E00044380240002809DB00F01F02012191403D
:1005F0004009800000F1E020C0F8001170470000C1
:10060000F0B40E4B1B680C46C3F30223C3F107057D
:10061000042D00D90425191D072901D2002300E06B
:10062000DB1E012606FA05F1491E214099409E4035
:10063000761E16403143F0BC00F073BB0CED00E0B9
:10064000064900F0070208684FF6FF03184040EA29
:100650000220034A10430860704700000CED00E0E0
:100660000000FA052DE9F0470E46050065D0DFF8D9
:100670001481D8F80000F7B200F00F00B04207D2A2
:1006800088F80070D8F8000000F00F00B04254D194
:1006900028683D4C810712D5400703D5206840F4F7
:1006A000E05020602878000703D5206840F46040BF
:1006B00020602068A96820F0F000084320602878B6
:1006C000C0072DD0304968680839012812D00228A7
:1006D00013D0032811D00968890700292DDA216871
:1006E00021F0030101432160FFF71CFF814641F225
:1006F000883A0EE009688903EFE709688901ECE7A9
:10070000FFF710FFA0EB0901514502D90320BDE816
:10071000F0872068696800F00C00B0EB810FEFD122
:10072000D8F80010404601F00F01B14207D9077018
:10073000006800F00F00B04201D00120E7E7287800
:10074000400705D52068E96820F4E05008432060A0
:100750002878000706D52068296920F4604040EA1F
:10076000C100206000F016F82168084AC1F30311A7
:10077000515CC840064908600020FFF7FBFE0020DE
:10078000C5E70000003C024008380240380E00086F
:1007900010000020154810B5006810F00C02144835
:1007A00013D01449042A0FD0082A0ED10F4C241F4D
:1007B0002268236802F03F025B0207D52068C0F37D
:1007C0008810A0FB010106E0084610BD2168C1F3B6
:1007D0008811A1FB00010023FFF7F2FC2168C1F39F
:1007E0000141491C4900B0FBF1F010BD083802403E
:1007F0000024F40040787D012DE9F84F050076D003
:100800002878DFF8F8B2BE4CC00749D0DBF80010FA
:100810005846C1F38101012908D00068C0F3810066
:1008200002280AD1201D0068400206D520688003F6
:1008300036D568680028E2D032E06868B0F5803FBD
:1008400010D0B0F5A02F206810D020F480302060A8
:10085000206820F4802020606868A0B1FFF762FE65
:1008600006460CE0206840F48030F4E740F4802035
:100870002060F7E7FFF756FE801B642873D82068D6
:100880008003F7D50CE0FFF74DFE064605E000BFFC
:10089000FFF748FE801B6428F0D820688003F7D457
:1008A0002878DFF8608280074FF000093ED5DBF83A
:1008B0000010584611F00C0F09D00068C0F38100F9
:1008C00002280BD18D48001F0068400206D4206822
:1008D000800715D5E868012809D111E0E868B8B1AA
:1008E0000120C8F80000FFF71DFE064605E002E102
:1008F000FFF718FE801B0228C0D820688007F7D5B4
:100900002068296920F0F80040EAC10020600DE06D
:10091000C8F80090FFF706FE064604E0FFF702FE67
:10092000801B02281FD820688007F7D4287800078A
:1009300022D5724E744869696C3671B1012101602B
:10094000FFF7F0FD074604E0FFF7ECFDC01B0228AF
:1009500009D830688007F7D50EE0C0F80090FFF79F
:10096000E1FD074605E083E0FFF7DCFDC01B022840
:100970007ED830688007F7D42878400768D5DFF83C
:100980007CA100270AF1380ADAF80000C0000BD475
:10099000DAF8001041F08051CAF80010DAF80000CF
:1009A000012700F080500090584E3068C00510D4E8
:1009B000306840F480703060FFF7B4FD009005E0CF
:1009C000FFF7B0FD0099401A022851D83068C005E1
:1009D000F6D54A4EA868683601280FD00528306839
:1009E00010D020F001003060306820F0040030604A
:1009F000A868B8B1FFF796FD00900FE0306840F0AE
:100A00000100F4E740F004003060F7E7FFF78AFDEB
:100A10000099411A41F28830814264D830688007D9
:100A2000F4D50EE0FFF77EFD009007E0FFF77AFDBA
:100A30000099411A41F28830814254D830688007C9
:100A4000F4D42FB1DAF8001021F08051CAF8001068
:100A5000A869C0B3DBF80010C1F3810102294AD0B4
:100A60000228484607D0C8F86000FFF75BFD00E0A9
:100A700039E005463AE04746C8F86000FFF752FD06
:100A8000064604E0FFF74EFD801B02282BD82068A5
:100A90008001F7D4D5E907010843A96A1C4A49082F
:100AA00002EB01416A6A41EA8211084395F82C1071
:100AB00040EA01611148001F016001203866FFF71C
:100AC00031FD054605E014E0FFF72CFD401B022830
:100AD00009D820688001F7D50BE000BFFFF722FDA1
:100AE000401B022802D90320BDE8F88F206880014E
:100AF000F4D40020F8E70120F6E7000008380240AF
:100B00000038024000004742800E4742007000401B
:100B10000000FFFF10B5401EB0F1807F01D301201F
:100B200010BD4FF0E02460610F21601700F0F9F86C
:100B30000020A06107202061002010BDFEE700001A
:100B40002DE9F04186B014216846FFF771FB244877
:100B50000024016841F002010160016801F0020116
:100B60000591016841F0010101600068DFF87480BF
:100B700000F001004EF250050590224629464046FD
:100B8000FFF7CAFC184F4FF40046002231463846A2
:100B9000FFF7C2FC00950125CDE9015469464046A6
:100BA0000394FFF7E1FB0096CDE90154694638460E
:100BB0000394FFF7D9FB082000900C48CDE901040D
:100BC00069464046FFF7D0FB002211460920FFF797
:100BD00017FD0920FFF706FD06B0BDE8F081000013
:100BE00030380240000402400000024000002110A2
:100BF000FEE770470122D1030148FFF78DBC0000DA
:100C000000040240012210210148FFF785BC0000CA
:100C100000040240012251030148FFF77DBC00009F
:100C200000040240012240210148FFF775BC00008A
:100C300000040240012291030148FFF76DBC00004F
:100C4000000402400122D1030148FFF765BC000007
:100C50000000024070477047FFF76ABC10B592B0C1
:100C600030216846FFF7E4FA14210CA8FFF7E0FAF8
:100C700014480024016841F080510160006800F0D0
:100C8000805011901048016841F480410160006873
:100C9000069400F4804011900220009001200390FF
:100CA000102004906846FFF7A7FD0F20CDE90C0443
:100CB0000E940F9400210CA81094FFF7D3FC12B0EF
:100CC00010BD00004038024000700040104801682C
:100CD00041F4700101600F48016841F001010160B9
:100CE0000C4A00210832116002680B4B1A40026066
:100CF000031D0A4A1A60026822F480220260054835
:100D00000C300160024958068039086070470000C5
:100D100088ED00E000380240FFFFF6FE10300024AE
:100D2000FEE70907090E002804DB00F1E02080F847
:100D30000014704700F00F0000F1E02080F8141D4F
:100D4000704702E008C8121F08C1002AFAD1704794
:100D50007047002001E001C1121F002AFBD170473B
:100D6000FFF7EEFBFFF77AFFFFF7EAFE314C207842
:100D700080B3FFF73FFFFFF745FFFA20FFF7CAFAFE
:100D8000FFF794FAFFF79AFAFA20FFF7C3FAFFF792
:100D900051FFFFF757FFFA20FFF7BCFAFFF7A6FA5B
:100DA000FFF7ACFAFA20FFF7B5FAFFF733FFFA20A6
:100DB000FFF7B0FAFFF78AFAFA20FFF7ABFAFFF76E
:100DC00031FFFA20FFF7A6FAFFF788FAFA20FFF7BB
:100DD000A1FACCE7FFE7FFF725FFFA20FFF79AFA21
:100DE000FFF77CFAFA20FFF795FAFFF713FFFA20D6
:100DF000FFF790FAFFF76AFAFA20FFF78BFAFFF78E
:100E000019FFFFF71FFFFA20FFF784FAFFF76EFACA
:100E1000FFF774FAFA20FFF77DFAFFF7EBFEFFF712
:100E2000F1FEFA20FFF776FAFFF740FAFFF746FAED
:100E3000CCE70000000000200000000000000000DF
:100E40000102030406070809680E000800000020DC
:100E500014000000420D00087C0E00081400002061
:100E600004040000520D0008000000000100000012
:0C0E700010000000000000000024F4004E
:040000050800018965
:00000001FF
