:020000040800F2
:10000000600500209D010008FF0F00082F0E00086A
:10001000FD0F0008A90200084914000800000000B4
:1000200000000000000000000000000003100008B5
:10003000AB020008000000000110000829100008B1
:10004000B7010008B7010008B7010008B7010008B0
:10005000B7010008B7010008B7010008B7010008A0
:10006000B7010008B7010008B7010008B701000890
:10007000B7010008B7010008B7010008B701000880
:10008000B7010008B7010008B7010008B701000870
:10009000B7010008B7010008B7010008B701000860
:1000A000B7010008B7010008B7010008B701000850
:1000B000B7010008B7010008B7010008B701000840
:1000C000B7010008B7010008B7010008B701000830
:1000D000B7010008B7010008B7010008B701000820
:1000E000B7010008B7010008B7010008B701000810
:1000F000B7010008B7010008B7010008B701000800
:10010000B7010008B7010008B7010008B7010008EF
:10011000B7010008B7010008B7010008B7010008DF
:10012000B7010008B7010008B7010008B7010008CF
:10013000B70100080000000000000000B70100083F
:10014000B7010008B7010008B7010008B7010008AF
:10015000B7010008B7010008B7010008B70100089F
:10016000B7010008B7010008B7010008B70100088F
:10017000B7010008B70100080000000000000000FF
:10018000B7010008B7010008DFF80CD000F07AF8DA
:100190000048004789140008600500200648804791
:1001A00006480047FEE7FEE7FEE7FEE7FEE7FEE75C
:1001B000FEE7FEE7FEE7FEE79D1000088901000864
:1001C0002DE9F05F0546002092469B46884606468C
:1001D000814640241BE0284641464746224600F01F
:1001E00041F853465A46C01A914110D31146184659
:1001F000224600F028F82D1A67EB01084F462246E8
:100200000120002100F01FF817EB00094E41201ECD
:10021000A4F10104DFDC484631462A464346BDE8E6
:10022000F09FD2B201E000F8012B491EFBD27047CB
:100230000022F6E710B513460A4604461946FFF7B2
:10024000F0FF204610BD202A04DB203A00FA02F11C
:10025000002070479140C2F1200320FA03F31943B4
:1002600090407047202A04DB203A21FA02F0002156
:10027000704721FA02F3D040C2F1200291400843B6
:1002800019467047064C074D06E0E06840F0010350
:1002900094E8070098471034AC42F6D3FFF778FF94
:1002A000A4150008C4150008FEE7704770B50446A1
:1002B00000F0F0F80546601C02D0044800780444C1
:1002C00000F0E8F8401BA042FAD370BD10010020F6
:1002D0002DE9F84FDFF87CB100224FF001084FF014
:1002E000030A4FF00F090BF1040E00BF0B6808FA68
:1002F00002F42340A3426ED14D68022D01D0122D8D
:100300000ED1D50800EB850CDCF820505607F70E0F
:1003100009FA07F6B5430E69BE402E43CCF82060BB
:10032000066855000F790AFA05FC07F0030726EA6C
:100330000C06AF40374307604E68012E05D0022EF1
:1003400003D0112E01D0122E0ED18668CF6826EA76
:100350000C06AF40374387604668A6430C79C4F368
:100360000014944034434460C6688C6826EA0C0646
:10037000AC403443C4604C68E40065D5364C256815
:1003800045F480452560246822F0030504F4804488
:100390000094324C2E19D6F8084895072F0F09FA09
:1003A00007F5AC432E4DA84201D1002524E02D4D88
:1003B000A84201D101251FE02B4DA84201D1022501
:1003C0001AE02A4DA84201D1032515E0284DA84284
:1003D00002D1042510E037E0264DA84201D10525C1
:1003E0000AE0254DA84201D1062505E0234DA8428B
:1003F00001D1072500E00825BD402543C6F808586F
:10040000DBF800405D464E689C43F60300D51C4374
:100410002C60DEF8004075464E689C43B60300D55C
:100420001C432C600B4D08352C684E689C43F6022B
:1004300000D51C432C60074D0C352C684E689C433E
:10044000B60200D51C432C60521C102AFFF44EAF9C
:10045000BDE8F88F003C01404438024000300140C4
:10046000000002400004024000080240000C02406C
:10047000001002400014024000180240001C02401C
:100480000069084000D0012070470AB181617047BF
:100490000904FBE701488068704700001001002054
:1004A0000248816802781144816070471001002081
:1004B0000B4810B5016841F400710160016841F416
:1004C00080610160016841F480710160032000F0E7
:1004D00061F8002000F006F800F024F8002010BDBC
:1004E000003C024070B50D4D04464FF47A712878F7
:1004F000B1FBF0F00A490968B1FBF0F000F0B4FA82
:1005000048B9102C07D200222146501E00F022F8D4
:1005100000206C6070BD012070BD00001001002043
:100520001C0100200A4808B5016841F480410160BF
:10053000006800F4804000900548001F016841F009
:1005400080510160006800F08050009008BD0000FC
:1005500044380240F0B40E4B1B680C46C3F3022330
:10056000C3F10705042D00D90425191D072901D25F
:10057000002300E0DB1E012606FA05F1491E21409A
:1005800099409E40761E16403143F0BC00F05DBF9E
:100590000CED00E0064900F0070208684FF6FF0383
:1005A000184040EA0220034A1043086070470000E8
:1005B0000CED00E00000FA052DE9F0470E460500BD
:1005C00065D0DFF81481D8F80000F7B200F00F0012
:1005D000B04207D288F80070D8F8000000F00F0091
:1005E000B04254D128683D4C810712D5400703D54D
:1005F000206840F4E05020602878000703D5206888
:1006000040F4604020602068A96820F0F0000843B2
:1006100020602878C0072DD0304968680839012843
:1006200012D0022813D0032811D0096889070029A5
:100630002DDA216821F0030101432160FFF72AFF31
:10064000814641F2883A0EE009688903EFE70968BC
:100650008901ECE7FFF71EFFA0EB0901514502D924
:100660000320BDE8F0872068696800F00C00B0EB5B
:10067000810FEFD1D8F80010404601F00F01B142D0
:1006800007D90770006800F00F00B04201D00120C8
:10069000E7E72878400705D52068E96820F4E050AE
:1006A000084320602878000706D52068296920F4CF
:1006B000604040EAC100206000F016F82168084A56
:1006C000C1F30311515CC840064908600020FFF7E0
:1006D00009FF0020C5E70000003C02400838024046
:1006E000941500081C010020154810B5006810F092
:1006F0000C02144813D01449042A0FD0082A0ED132
:100700000F4C241F2268236802F03F025B0207D5CA
:100710002068C0F38810A0FB010106E0084610BD68
:100720002168C1F38811A1FB00010023FFF748FDF8
:100730002168C1F30141491C4900B0FBF1F010BD33
:10074000083802400024F40040787D012DE9F84F7C
:10075000050076D02878DFF8F8B2BE4CC00749D043
:10076000DBF800105846C1F38101012908D0006868
:10077000C0F3810002280AD1201D0068400206D57E
:100780002068800336D568680028E2D032E06868C7
:10079000B0F5803F10D0B0F5A02F206810D020F425
:1007A00080302060206820F4802020606868A0B13C
:1007B000FFF770FE06460CE0206840F48030F4E756
:1007C00040F480202060F7E7FFF764FE801B642878
:1007D00073D820688003F7D50CE0FFF75BFE064670
:1007E00005E000BFFFF756FE801B6428F0D82068A4
:1007F0008003F7D42878DFF8608280074FF0000983
:100800003ED5DBF80010584611F00C0F09D00068F7
:10081000C0F3810002280BD18D48001F0068400200
:1008200006D42068800715D5E868012809D111E0B1
:10083000E868B8B10120C8F80000FFF72BFE0646B3
:1008400005E002E1FFF726FE801B0228C0D82068E1
:100850008007F7D52068296920F0F80040EAC10038
:1008600020600DE0C8F80090FFF714FE064604E093
:10087000FFF710FE801B02281FD820688007F7D4DE
:100880002878000722D5724E744869696C3671B1B8
:1008900001210160FFF7FEFD074604E0FFF7FAFDC6
:1008A000C01B022809D830688007F7D50EE0C0F8D1
:1008B0000090FFF7EFFD074605E083E0FFF7EAFD54
:1008C000C01B02287ED830688007F7D428784007FC
:1008D00068D5DFF87CA100270AF1380ADAF80000B1
:1008E000C0000BD4DAF8001041F08051CAF80010B3
:1008F000DAF80000012700F080500090584E306870
:10090000C00510D4306840F480703060FFF7C2FD3D
:10091000009005E0FFF7BEFD0099401A022851D86B
:100920003068C005F6D54A4EA868683601280FD051
:100930000528306810D020F001003060306820F0C9
:1009400004003060A868B8B1FFF7A4FD00900FE084
:10095000306840F00100F4E740F004003060F7E751
:10096000FFF798FD0099411A41F28830814264D81E
:1009700030688007F4D50EE0FFF78CFD009007E0AB
:10098000FFF788FD0099411A41F28830814254D81E
:1009900030688007F4D42FB1DAF8001021F08051CC
:1009A000CAF80010A869C0B3DBF80010C1F38101D8
:1009B00002294AD00228484607D0C8F86000FFF74D
:1009C00069FD00E039E005463AE04746C8F86000B6
:1009D000FFF760FD064604E0FFF75CFD801B022880
:1009E0002BD820688001F7D4D5E907010843A96A0C
:1009F0001C4A490802EB01416A6A41EA8211084334
:100A000095F82C1040EA01611148001F0160012097
:100A10003866FFF73FFD054605E014E0FFF73AFDB5
:100A2000401B022809D820688001F7D50BE000BFE1
:100A3000FFF730FD401B022802D90320BDE8F88FE4
:100A400020688001F4D40020F8E70120F6E70000D8
:100A5000083802400038024000004742800E4742FA
:100A6000007000400000FFFF10B5401EB0F1807F15
:100A700001D3012010BD4FF0E02460610F21601709
:100A800000F0E3FC0020A06107202061002010BDE1
:100A900070B590F83C20012A19D0012400F83C4F91
:100AA0000222427050F83C3C5A689D6822F0700661
:100AB0000A684968324325F0800529435A6050F896
:100AC0003C2C9160447000210170084670BD0220EA
:100AD00070BD10B504460068042200F06DFB20686C
:100AE000416C41F4004141642068816801F00701D4
:100AF000062903D0016841F001010160002010BD0A
:100B000010B504460068002200F056FB2068036A16
:100B100041F211110B4240F2444206D1036A1342E2
:100B200003D1436C23F4004343642068036A0B42FF
:100B300006D1016A114203D1016821F0010101606F
:100B4000002010BD10B5040003D094F83D0010B192
:100B500007E0012010BD002084F83C00204600F092
:100B60000DF8022084F83D00211D206800F0C0FA35
:100B7000012084F83D00002010BD000008B5006889
:100B80000649884208D10648016841F00401016025
:100B9000006800F00400009008BD0000000800405C
:100BA0004038024070B5044690F83C00012817D048
:100BB000012584F83C50022084F83D0020688268BA
:100BC00022F0770222F47F4282600868502830D0F9
:100BD0000DDC20284DD005DC98B310283BD148E02F
:100BE000022070BD302844D0402834D139E060283C
:100BF00028D0702806D0B0F5805F2CD0B0F5005F0B
:100C000029D10AE0CB68D1E90121206800F0E1FA9E
:100C10002068816841F0770109E0CB68D1E90121C2
:100C2000206800F0D6FA2068816841F48041816034
:100C300011E0CA684968206800F0E3FB5021206891
:100C400007E016E0CA684968206800F0EBFB602105
:100C5000206800F0C8FA84F83D50002084F83C0079
:100C600070BDCA684968206800F0CBFB402120684D
:100C7000EFE7226801461046EBE7000010B586B0AA
:100C8000044614216846FFF7D3FA0E4920688842CB
:100C900015D10D480021026842F00202026000688E
:100CA00000F0020005904FF4007000900220CDE9A2
:100CB0000101CDE9031069460448FFF709FB06B0BE
:100CC00010BD00000008004030380240000402401F
:100CD00070B5044690F83C000D4601280DD0012661
:100CE00084F83C60022084F83D0042B1042A18D008
:100CF000082A2AD00C2A4DD139E0022070BD206884
:100D000000F07AFA2068816941F008018161206869
:100D1000816921F004018161206881692A69114398
:100D200011E0206800F098FA2068816941F40061C0
:100D300081612068816921F4806181612068816915
:100D40002A6941EA0221816124E0206800F0BAFAB0
:100D50002068C16941F00801C1612068C16921F0C2
:100D60000401C1612068C1692A69114311E020684A
:100D700000F0DCFA2068C16941F40061C1612068BB
:100D8000C16921F48061C1612068C1692A6941EAB1
:100D90000221C16184F83D60002084F83C0070BDF0
:100DA00010B5040003D094F83D0010B107E0012015
:100DB00010BD002084F83C00204600F00CF8022012
:100DC00084F83D00211D206800F092F9012084F88C
:100DD0003D00002010BD704770B5044690F83C00FF
:100DE000012812D0012584F83C50022084F83D00EF
:100DF000204600F0C3FA01004FF0000007D084F84D
:100E00003D5084F83C00012070BD022070BD216877
:100E1000CA6822F04002CA602168CA6822F480428F
:100E2000CA6084F83D5084F83C00002070BDFEE7A5
:100E300030B593B0002405460C940D940E94142103
:100E400007A80F94FFF7F4F910941C216846119439
:100E5000FFF7EEF91C491B480860681EC1E9010450
:100E60000F20C1E9030408468C61FFF76BFE4FF4C5
:100E700080500C900CA91448FFF794FE1248FFF71D
:100E80008FFF0620CDE9070407A90F48FFF7A4FF4D
:100E9000109410A90C481194FFF7FAFD60206D1E04
:100EA000009005EBD5704010CDE901040C22694695
:100EB00005480494FFF70CFF0348FFF7DFFE13B06B
:100EC00030BD0000000800402001002070B5274D13
:100ED0004FF4E076002231462846FFF7D6FA012289
:100EE0004FF4C0712846FFF7D0FA002404F5805172
:100EF0002846FFF7C5FA88B3641CE4B2042CF5D386
:100F0000002231462846FFF7C0FA01224FF4A071B3
:100F10002846FFF7BAFA002404F580512846FFF767
:100F2000AFFAF0B1641CE4B2042CF5D300223146D0
:100F30002846FFF7AAFA0122C0212846FFF7A5FAA2
:100F40005FF0000404F580512846FFF799FA50B18C
:100F5000641CE4B2042CF5D3002070BDFFE7601CD4
:100F6000FBE7601DF9E704F10900F6E7000C024019
:100F700010B592B000240C940D940E94142107A87F
:100F80000F94FFF755F910941C2168461194FFF750
:100F90004FF919481749C0E900140F21C0E902416F
:100FA00004618461FFF7CEFD4FF480500C900CA9D2
:100FB0001148FFF7F7FD1048FFF7F2FE0620CDE9D4
:100FC000070407A90C48FFF707FF109410A90A4867
:100FD0001194FFF75DFD6020CDE9000402940C221E
:100FE000694605480494FFF773FE0348FFF746FE81
:100FF00012B010BD0008004020010020FEE770473D
:1010000070477047B0F57A7F04D00649B1FBF0F025
:1010100080B200E000204FF6FF7101EA4000FFF7C8
:1010200007BF000020A10700FFF73ABA10B592B041
:1010300030216846FFF7FCF814210CA8FFF7F8F8F8
:1010400014480024016841F080510160006800F0FC
:10105000805011901048016841F48041016000689F
:10106000069400F48040119002200090012003902B
:10107000102004906846FFF769FB0F20CDE90C04AF
:101080000E940F9400210CA81094FFF795FA12B05B
:1010900010BD000040380240007000401048016858
:1010A00041F4700101600F48016841F001010160E5
:1010B0000C4A00210832116002680B4B1A40026092
:1010C000031D0A4A1A60026822F480220260054861
:1010D0000C300160024958068039086070470000F2
:1010E00088ED00E000380240FFFFF6FE10300024DB
:1010F000F0B50268254C264D264E274F274B4FF062
:10110000804CA04209D0604507D0A84205D0B0422B
:1011100003D0B84201D0984204D122F0700E4A6840
:1011200042EA0E02A0421BD0604519D0A84217D057
:10113000B04215D0B84213D0984211D0184DA842F1
:101140000ED0184DA8420BD0174DA84208D0174D0D
:10115000A84205D0164DA84202D0164DA84203D190
:1011600022F44075CA682A434D6922F080022A435E
:1011700002608A68C2620A688262A04201D0984214
:1011800001D10969016301214161F0BD0000014005
:101190000004004000080040000C00400004014032
:1011A0000040014000440140004801400018004058
:1011B000001C00400020004010B501F01F03042176
:1011C000046A99408C430462016A9A4011430162A7
:1011D00010BD10B5846842EA032224F47F440A4318
:1011E0002243826010BD826822F070020A4342F0FE
:1011F0000701816070470000F0B5026A22F0010229
:101200000262036A42688469124E24F073050C6816
:101210002C4323F002058B682B430D4DA84201D0CF
:10122000B04205D123F00807CB683B4323F0040309
:10123000A84201D0B04205D14D6922F44072154355
:101240008A692A4342608461496841630362F0BD50
:101250000000014000040140F0B5026A22F01002D3
:101260000262026A436884690D6824F4E64444EA31
:1012700005248D6822F0200242EA05120F4D104E1F
:10128000A84201D0B04206D1CF6822F0800242EAE3
:10129000071222F04002A84201D0B04207D14D69A6
:1012A00023F4406343EA85038D6943EA8503436081
:1012B0008461496881630262F0BD00000000014062
:1012C00000040140F0B5026A22F480720262026AF0
:1012D0004368C46922F4007224F073050C68124E4E
:1012E0002C438D6842EA05220E4DA84201D0B0423F
:1012F00006D1CF6822F4006242EA072222F480621B
:10130000A84201D0B04207D14D6923F4405343EACB
:1013100005138D6943EA05134360C4614968C163DD
:101320000262F0BD000001400004014030B5026AD5
:1013300022F480520262046A4268C3690D6823F491
:10134000E64343EA05238D6824F4005444EA053457
:10135000084DA84202D0084DA84204D14D6922F49C
:10136000804242EA85124260C361496801640462B6
:1013700030BD0000000001400004014010B50368CA
:101380009A6822F070044A68224322F007040A682F
:1013900022439A604A6812F00F0F30D11211082AC6
:1013A0002DD2DFE802F02C2C2C2C0B2127040B690A
:1013B000D1E902210068FFF70CFF20E00A68052A46
:1013C00010D00268136A146A24F0010414620268DF
:1013D0009469096924F0F00444EA011191610068FC
:1013E00003620CE0012010BD0A698968006800F002
:1013F00008F804E00A698968006800F013F8002022
:1014000010BD10B5036A046A24F001040462846903
:1014100024F0F00444EA021423F00A020A4384612F
:10142000026210BD10B5036A23F0100303628369E2
:10143000046A23F4704343EA023224F0A00343EA2F
:1014400001118261016210BDFEE70907090E002843
:1014500004DB00F1E02080F80014704700F00F007A
:1014600000F1E02080F8141D704702E008C8121F48
:1014700008C1002AFAD170477047002001E001C17D
:10148000121F002AFBD1704786B0FFF711F8FFF753
:10149000CDFD14216846FEF7CBFE294800240168E3
:1014A00041F0020101600068264E00F002004FF496
:1014B000E0750590224629463046FEF7E6FF4FF4D8
:1014C0007040CDE90004694630460294FEF700FF03
:1014D00001200095CDE90104694630460394FEF7EA
:1014E000F7FEFFF745FD184C4FF47A76A4F11C0582
:1014F000FFF7ECFC07463220FEF7D8FE012F06D09E
:10150000022F0BD0032F09D0042F13D106E00C219A
:101510000E48FFF7DEFA00F01BF80BE00C210B4839
:10152000FFF7D7FAA07835F81000FFF76BFD3046CB
:10153000FEF7BCFE0C210548FFF7E2FAD8E70000F1
:1015400030380240000402401C000020200100202E
:101550002DE9F0470E4E0A270024A6F11C0806F1DB
:101560007909002504E000BFFFF74CFD6D1CADB20A
:10157000325D19F8041038F812004143B1FBF7F15D
:10158000A942F1D8641CA4B2792CEAD3BDE8F08753
:101590001C00002000000000000000000102030405
:1015A00006070809C41500080000002020010000FB
:1015B0006A140008E416000820010020400400001E
:1015C0007A140008F700060126014A015D0188012E
:1015D000B80126010B024B029302BA021003E80382
:1015E00005050608070605060D0D0505060807068C
:1015F00005030D0D0202030503050603020106069D
:101600000506050306050D0D050506080706050672
:101610000D0D05050608070605030D0D020203055D
:1016200003050603020106060506050306010D086B
:10163000090A0A09080A0908060D06080909080620
:10164000090806050D02030505030505060807063A
:10165000060A090908060506080204020202020237
:101660000804040204020202020208040402040242
:101670000402020402020802040202020202080436
:10168000040204020202020208040402040202022A
:101690000202080404020402040202040202080214
:1016A000040202020202080402020204020202020E
:1016B00002080402020204020202020208040202F8
:1016C00002040202050206020402020204020402EB
:1016D000020C0000010000001000000000000000EB
:0416E0000024F400EE
:040000050800018965
:00000001FF
