:020000040800F2
:10000000580400209D0100084B100008170F00083D
:1000100049100008A902000845120008000000006D
:10002000000000000000000000000000B310000805
:10003000AB020008000000004D1000086511000828
:10004000B7010008B7010008B7010008B7010008B0
:10005000B70100084F100008B7010008B7010008F9
:10006000B7010008B7010008B7010008B701000890
:10007000B7010008B7010008B7010008B701000880
:10008000B7010008B7010008B7010008B701000870
:10009000B7010008B7010008B7010008B701000860
:1000A000B7010008B7010008B7010008B701000850
:1000B000B7010008B7010008B7010008B701000840
:1000C000B7010008B7010008B7010008B701000830
:1000D000B7010008B7010008B7010008B701000820
:1000E000B7010008B7010008B7010008B701000810
:1000F000B7010008B7010008B7010008B701000800
:10010000B7010008B7010008B7010008B7010008EF
:10011000B7010008B7010008B7010008B7010008DF
:10012000B7010008B7010008B7010008B7010008CF
:10013000B70100080000000000000000B70100083F
:10014000B7010008B7010008B7010008B7010008AF
:10015000B7010008B7010008B7010008B70100089F
:10016000B7010008B7010008B7010008B70100088F
:10017000B7010008B70100080000000000000000FF
:10018000B7010008B7010008DFF80CD000F07AF8DA
:1001900000480047A1120008580400200648804784
:1001A00006480047FEE7FEE7FEE7FEE7FEE7FEE75C
:1001B000FEE7FEE7FEE7FEE7F1110008890100080F
:1001C0002DE9F05F0546002092469B46884606468C
:1001D000814640241BE0284641464746224600F01F
:1001E00041F853465A46C01A914110D31146184659
:1001F000224600F028F82D1A67EB01084F462246E8
:100200000120002100F01FF817EB00094E41201ECD
:10021000A4F10104DFDC484631462A464346BDE8E6
:10022000F09FD2B201E000F8012B491EFBD27047CB
:100230000022F6E710B513460A4604461946FFF7B2
:10024000F0FF204610BD202A04DB203A00FA02F11C
:10025000002070479140C2F1200320FA03F31943B4
:1002600090407047202A04DB203A21FA02F0002156
:10027000704721FA02F3D040C2F1200291400843B6
:1002800019467047064C074D06E0E06840F0010350
:1002900094E8070098471034AC42F6D3FFF778FF94
:1002A0009C130008BC130008FEE770472DE9F84FC7
:1002B000DFF87CB100224FF001084FF0030A4FF045
:1002C0000F090BF1040E00BF0B6808FA02F423407B
:1002D000A3426ED14D68022D01D0122D0ED1D5084A
:1002E00000EB850CDCF820505607F70E09FA07F6EC
:1002F000B5430E69BE402E43CCF820600668550019
:100300000F790AFA05FC07F0030726EA0C06AF404E
:10031000374307604E68012E05D0022E03D0112E00
:1003200001D0122E0ED18668CF6826EA0C06AF40A7
:10033000374387604668A6430C79C4F300149440A1
:1003400034434460C6688C6826EA0C06AC403443EB
:10035000C4604C68E40065D5364C256845F480459A
:100360002560246822F0030504F480440094324C94
:100370002E19D6F8084895072F0F09FA07F5AC4350
:100380002E4DA84201D1002524E02D4DA84201D1D7
:1003900001251FE02B4DA84201D102251AE02A4D6C
:1003A000A84201D1032515E0284DA84202D1042519
:1003B00010E037E0264DA84201D105250AE0254D81
:1003C000A84201D1062505E0234DA84201D1072509
:1003D00000E00825BD402543C6F80858DBF800407A
:1003E0005D464E689C43F60300D51C432C60DEF846
:1003F000004075464E689C43B60300D51C432C60F4
:100400000B4D08352C684E689C43F60200D51C4302
:100410002C60074D0C352C684E689C43B60200D505
:100420001C432C60521C102AFFF44EAFBDE8F88F1D
:10043000003C0140443802400030014000000240CE
:100440000004024000080240000C0240001002407C
:100450000014024000180240001C02400AB18161F1
:1004600070470904FBE700000148806870470000FE
:1004700014000020024881680278114481607047AE
:10048000140000200B4810B5016841F400710160B0
:10049000016841F480610160016841F4807101608C
:1004A000032000F077F8002000F006F800F024F8B0
:1004B000002010BD003C024070B50D4D04464FF4C5
:1004C0007A712878B1FBF0F00A490968B1FBF0F0C5
:1004D00000F00DFD48B9102C07D200222146501E15
:1004E00000F038F800206C6070BD012070BD000085
:1004F00014000020200000200E4808B5016841F4D7
:1005000080410160006800F4804000900948001FAD
:10051000016841F0805101600068002200F08050C5
:1005200000901146052000F015F8BDE808400520B0
:1005300000F002B844380240002809DB00F01F0236
:10054000012191404009800000F1E020C0F8001135
:1005500070470000F0B40E4B1B680C46C3F3022337
:10056000C3F10705042D00D90425191D072901D25F
:10057000002300E0DB1E012606FA05F1491E21409A
:1005800099409E40761E16403143F0BC00F05BBEA1
:100590000CED00E0064900F0070208684FF6FF0383
:1005A000184040EA0220034A1043086070470000E8
:1005B0000CED00E00000FA052DE9F843054600685F
:1005C0004FF00109C1074FF0000601D1400727D5C0
:1005D000DFF80C81C8F86860FFF746FF0746414C1A
:1005E00005E000BFFFF740FFC01B022857D8206876
:1005F0000001F7D468688101287A41EA007039491E
:1006000084310860C8F86890FFF72EFF074604E0C1
:10061000FFF72AFFC01B022841D820680001F7D548
:100620002878800752D52F484030016841F080512A
:10063000016000682C4C00F080500090206840F46D
:1006400080702060FFF710FF074604E0FFF70CFF03
:10065000C01B022823D82068C005F7D5214C703470
:10066000206810F4407020D0A98901F440718142C3
:100670001BD020681D4920F44070C1F800900E6026
:1006800020602068C00710D0FFF7EEFE064641F25A
:10069000883707E0FFF7E8FE801BB84202D9032045
:1006A000BDE8F88320688007F4D5E9680D48C1F3F8
:1006B00001220830032A0BD0016821F4F8110160EF
:1006C0002068A989C1F30B01084320600020E7E7F7
:1006D0000268074B22F4F81219400A430260EFE760
:1006E000000047420038024000700040400E474280
:1006F000FFFCFF0F2DE9F0470E46050065D0DFF83F
:100700001481D8F80000F7B200F00F00B04207D211
:1007100088F80070D8F8000000F00F00B04254D103
:1007200028683D4C810712D5400703D5206840F466
:10073000E05020602878000703D5206840F460402E
:1007400020602068A96820F0F00008432060287825
:10075000C0072DD0304968680839012812D0022816
:1007600013D0032811D00968890700292DDA2168E0
:1007700021F0030101432160FFF776FE814641F23B
:10078000883A0EE009688903EFE709688901ECE718
:10079000FFF76AFEA0EB0901514502D90320BDE82D
:1007A000F0872068696800F00C00B0EB810FEFD192
:1007B000D8F80010404601F00F01B14207D9077088
:1007C000006800F00F00B04201D00120E7E7287870
:1007D000400705D52068E96820F4E0500843206010
:1007E0002878000706D52068296920F4604040EA8F
:1007F000C100206000F016F82168084AC1F3031117
:10080000515CC840064908600020FFF755FE0020F3
:10081000C5E70000003C0240083802408C13000885
:1008200020000020154810B5006810F00C02144894
:1008300013D01449042A0FD0082A0ED10F4C241FBC
:100840002268236802F03F025B0207D52068C0F3EC
:100850008810A0FB010106E0084610BD2168C1F325
:100860008811A1FB00010023FFF7AAFC2168C1F356
:100870000141491C4900B0FBF1F010BD08380240AD
:100880000024F40040787D012DE9F84F050076D072
:100890002878DFF8F8B2BE4CC00749D0DBF800106A
:1008A0005846C1F38101012908D00068C0F38100D6
:1008B00002280AD1201D0068400206D52068800366
:1008C00036D568680028E2D032E06868B0F5803F2D
:1008D00010D0B0F5A02F206810D020F48030206018
:1008E000206820F4802020606868A0B1FFF7BCFD7C
:1008F00006460CE0206840F48030F4E740F48020A5
:100900002060F7E7FFF7B0FD801B642873D82068EC
:100910008003F7D50CE0FFF7A7FD064605E000BF12
:10092000FFF7A2FD801B6428F0D820688003F7D46D
:100930002878DFF8608280074FF000093ED5DBF8A9
:100940000010584611F00C0F09D00068C0F3810068
:1009500002280BD18D48001F0068400206D4206891
:10096000800715D5E868012809D111E0E868B8B119
:100970000120C8F80000FFF777FD064605E002E118
:10098000FFF772FD801B0228C0D820688007F7D5CA
:100990002068296920F0F80040EAC10020600DE0DD
:1009A000C8F80090FFF760FD064604E0FFF75CFD25
:1009B000801B02281FD820688007F7D428780007FA
:1009C00022D5724E744869696C3671B1012101609B
:1009D000FFF74AFD074604E0FFF746FDC01B02286B
:1009E00009D830688007F7D50EE0C0F80090FFF70F
:1009F0003BFD074605E083E0FFF736FDC01B0228FC
:100A00007ED830688007F7D42878400768D5DFF8AB
:100A10007CA100270AF1380ADAF80000C0000BD4E4
:100A2000DAF8001041F08051CAF80010DAF800003E
:100A3000012700F080500090584E3068C00510D457
:100A4000306840F480703060FFF70EFD009005E0E4
:100A5000FFF70AFD0099401A022851D83068C005F6
:100A6000F6D54A4EA868683601280FD005283068A8
:100A700010D020F001003060306820F004003060B9
:100A8000A868B8B1FFF7F0FC00900FE0306840F0C4
:100A90000100F4E740F004003060F7E7FFF7E4FC02
:100AA0000099411A41F28830814264D83068800749
:100AB000F4D50EE0FFF7D8FC009007E0FFF7D4FC78
:100AC0000099411A41F28830814254D83068800739
:100AD000F4D42FB1DAF8001021F08051CAF80010D8
:100AE000A869C0B3DBF80010C1F3810102294AD024
:100AF0000228484607D0C8F86000FFF7B5FC00E0C0
:100B000039E005463AE04746C8F86000FFF7ACFC1C
:100B1000064604E0FFF7A8FC801B02282BD82068BB
:100B20008001F7D4D5E907010843A96A1C4A49089E
:100B300002EB01416A6A41EA8211084395F82C10E0
:100B400040EA01611148001F016001203866FFF78B
:100B50008BFC054605E014E0FFF786FC401B0228ED
:100B600009D820688001F7D50BE000BFFFF77CFCB7
:100B7000401B022802D90320BDE8F88F20688001BD
:100B8000F4D40020F8E70120F6E70000083802401E
:100B90000038024000004742800E4742007000408B
:100BA0000000FFFF10B500680B4641680D4801408A
:100BB000080CD870C1F304245C7001F03F049C70F1
:100BC000C1F34231197052B900F042FAD870587826
:100BD00000F03EFA5870987800F03AFA98700020C9
:100BE00010BD00003FFFFF0010B50B460168896A89
:100BF000596001680969C1F30E01996000680168D4
:100C00000E480140C1F305401870C1F306245C7022
:100C100001F07F049C70402404EA1141D97052B95C
:100C200000F016FA1870587800F012FA5870987898
:100C300000F00EFA9870002010BD00007F7F7F004A
:100C400070B5040002D0607F10B106E0012070BDD5
:100C500000202077204600F049F8022060772168C4
:100C6000CA204862216853204862204600F004FAF6
:100C7000FF25042618BB206881681B4A114081604B
:100C80002168886862681043D4E904231A4310433A
:100C900088602168E068086120680169228941EA6A
:100CA000024101612068C16821F08001C1602068B3
:100CB0008068800607D4204600F0FEF818B120684E
:100CC00045626677C2E72068016C21F480210164E7
:100CD0002068016CA269114301642068456201200B
:100CE0006077002070BD0000BFFF8FFF00680349E0
:100CF000884202D102490120086070470028004064
:100D00003C0E47422DE9F0470446007F0B46012880
:100D10001FD04FF0010984F81C9002206077DAB1EF
:100D20009878D97840EA014558781978000240EA65
:100D3000413005432168CA20486221685320486237
:100D4000204600F099F90026FF274FF0040860BB09
:100D50001AE00220BDE8F0875878C10603D500F0FC
:100D6000EF000A305870D87800F07BF90204587808
:100D700000F077F942EA0022987800F072F9024315
:100D8000187842EA4035D5E70F48054020684560AD
:100D90002068C16821F08001C160206880688006F9
:100DA0000AD4204600F088F830B12068476284F801
:100DB0001D8026770120CDE72068476284F81D90CA
:100DC00026770020C6E700003FFFFF002DE9F0472F
:100DD0000446007F0D46012827D04FF0010A84F811
:100DE0001CA0022060772068002680684FEA4060DF
:100DF000F2B1002800DBEE70A878297840EA0147BC
:100E00006878E978000240EA014007432168CA2077
:100E10004862216853204862204600F02DF94FF0C7
:100E2000FF084FF00409A0BB16E00220BDE8F087E0
:100E3000002800DBEE70287800F013F902046878CF
:100E400000F00FF942EA0022A87800F00AF9024304
:100E5000E87842EA0047D9E716480740206807606B
:100E60002068816821F480218160D5E9030108436D
:100E700021688A68104388602068C16821F0800179
:100E8000C1602068806880060BD4204600F014F80A
:100E900038B12168C1F8248084F81D90267701209C
:100EA000C4E72168C1F8248084F81DA026770020BB
:100EB000BCE700007F7F7F0070B504460068C16812
:100EC00021F0A001C160FFF7CFFA05464FF47A7612
:100ED00007E000BFFFF7C8FA401BB04201D903206A
:100EE00070BD2068C0688006F4D5002070BD10B5C4
:100EF000401EB0F1807F01D3012010BD4FF0E024EF
:100F000060610F21601700F09EF90020A0610720AA
:100F10002061002010BDFEE72DE9F04387B01421C9
:100F20006846FFF785F927480024016841F004016D
:100F30000160016801F004010591016841F00101BF
:100F40000160016801F001010591016841F00201B1
:100F5000016000681C4F00F00200059000220F2184
:100F60003846FFF77BFADFF864804FF473460022BF
:100F700031464046FFF772FADFF854900022C02154
:100F80004846FFF76BFA0F2000900125CDE9015488
:100F9000694638460394FFF789F90096CDE9015474
:100FA000694640460394FFF781F9C0200090CDE9DF
:100FB0000154694648460394FFF778F907B0BDE845
:100FC000F08300003038024000000240000402407C
:100FD0000008024010B586B014216846FFF728F9D2
:100FE0001848002416490594C0E900147F21816047
:100FF000FF21C0E9031444618461FFF721FE0C2046
:101000008DF8000022208DF8010038208DF80200B4
:101010000394002269460B480494FFF7D7FE012091
:101020008DF814008DF815008DF816008DF8174016
:10103000002205A90348FFF765FE06B010BD0000B9
:101040000028004024000020FEE7704770477047EA
:10105000010901EB810100F00F0000EB4100C0B27B
:101060007047002102E00A38C0B2491C0A28FAD2AF
:10107000090740EA1160704770B504460068C1680E
:10108000490614D44FF0FF31C160FFF7EDF9054672
:101090004FF47A7607E000BFFFF7E6F9401BB04255
:1010A00001D9032070BD2068C0684006F4D5002037
:1010B00070BD704770B50446284D40064FF400419E
:1010C00001D5012200E000222846FFF7C7F92006DB
:1010D0004FF4804101D5012200E000222846FFF7AD
:1010E000BDF9A0064FF4005101D5012200E0002215
:1010F0002846FFF7B3F9E0064FF4805101D50122ED
:1011000000E000222846FFF7A9F920074FF40071FC
:1011100001D5012200E000222846FFF79FF9600771
:101120004FF4807101D5012200E000222846FFF72C
:1011300095F90B4DE00701D0012200E0002280214B
:101140002846FFF78BF9A00701D5012200E0002215
:101150002846BDE870404021FFF780B900040240F6
:1011600000080240FFF786B910B596B030216846F6
:10117000FFF75EF814210CA8FFF75AF800241A486C
:101180001194129413941494016841F080510160F9
:10119000006800F0805015901448016841F48041C7
:1011A00001600068102100F4804015900A20009032
:1011B0000120CDE90301CDE905046846FFF764FB92
:1011C0000F20CDE90C040E940F9400210CA810946C
:1011D000FFF790FA022011900002149011A8FFF777
:1011E000EBF916B010BD000040380240007000401E
:1011F0001048016841F4700101600F48016841F036
:10120000010101600C4A00210832116002680B4B99
:101210001A400260031D0A4A1A60026822F4802202
:10122000026005480C3001600249580680390860A8
:101230007047000088ED00E000380240FFFFF6FE36
:1012400010300024FEE70907090E002804DB00F136
:10125000E02080F80014704700F00F0000F1E0205B
:1012600080F8141D704702E008C8121F08C1002A48
:10127000FAD170477047002001E001C1121F002A17
:10128000FBD1704700224FF47A7306E00021491C1D
:1012900089B29942FBD3521C92B28242F6D3704774
:1012A000FFF7F0F8FFF760FFFFF736FEFFF792FE5B
:1012B000334F01220F213846FFF7D0F8314C324E20
:1012C0000A2531492F480022091F2038FFF76AFC00
:1012D0002C490022A1F12000FFF786FC0022012109
:1012E0003846FFF7BBF86078B0FBF5F105FB11005D
:1012F000305CFFF7DFFE0A20FFF7C4FF0122114632
:101300003846FFF7ABF8002202213846FFF7A6F86F
:101310006078B0FBF5F0305CFFF7CCFE0A20FFF7F9
:10132000B1FF012202213846FFF798F8002204217C
:101330003846FFF793F8A078B0FBF5F0305CFFF784
:10134000B9FE0A20FFF79EFF012204213846FFF76D
:1013500085F8002208213846FFF780F8A078B0FB16
:10136000F5F105FB1100305CFFF7A4FE0A20FFF742
:1013700089FF012208213846FFF770F8A1E7000035
:101380000000024044000020040000200000000093
:10139000000000000102030406070809BC1300084E
:1013A000000000202400000066120008E01300087E
:1013B0002400002034040000761200080000000021
:1013C000C0F9A4B0999282F880908883A7A1868EF4
:1013D0000100000010000000000000000024F400E4
:040000050800018965
:00000001FF
