:020000040800F2
:1000000050040020B50F0008910F0008930F00085E
:10001000950F0008970F0008990F000800000000D6
:100020000000000000000000000000009B0F00081E
:100030009D0F0008000000009F0F0008A10F00089E
:10004000D10F0008D50F0008D90F0008DD0F0008F8
:10005000E10F0008E50F0008E90F0008ED0F0008A8
:10006000F10F0008F50F0008F90F0008FD0F000858
:100070000110000805100008091000080D10000804
:100080001110000815100008191000081D100008B4
:100090002110000825100008291000082D10000864
:1000A0003110000835100008391000083D10000814
:1000B0004110000845100008491000084D100008C4
:1000C0005110000855100008591000085D10000874
:1000D0006110000865100008691000086D10000824
:1000E0007110000875100008791000087D100008D4
:1000F0008110000885100008891000088D10000884
:100100009110000895100008991000089D10000833
:10011000A1100008A5100008A9100008AD100008E3
:10012000B1100008B5100008B9100008BD10000893
:10013000C11000080000000000000000C510000809
:10014000C9100008CD100008D1100008D510000813
:10015000D9100008DD100008E1100008E5100008C3
:10016000E9100008ED100008F1100008F510000873
:10017000F9100008FD100008000000000000000059
:10018000011100080511000870B500F0CDF900F06C
:1001900029F800F060F800F061F900E0B072002189
:1001A000717200F0B8F80020307200F061F9307A16
:1001B000B17A204400F045F900F047F9307A315C1B
:1001C000012200F058F900F04DF9EEDB707A401C86
:1001D0007072C0B20A28E4DBB07A2028B4BF401C99
:1001E0000020DBE780B592B006A8302100F0B6F918
:1001F00001A8142100F0B2F9002000900123C248A8
:10020000016841F0805101600021006800F08050D9
:1002100000900098BD480091026842F4804202605C
:100220000222006800F48040009006A8009906921F
:100230001021002209930A910C9200F093F90F20EB
:1002400001900021029103910491059101A800F011
:1002500005FB13B000BD70B586B06846142100F0F0
:100260007DF90024AA48AB4EAB4D0594016841F0DE
:1002700001010160026802F0010205920122059964
:100280000594036843F002030360016801F0020172
:10029000059105990594FF210368A04C43F00403E0
:1002A0000360006800F0040005900598304600F0F7
:1002B0006BFC01224FF47341204600F065FC0122E3
:1002C000C02100F0D8F8FF2100F01DF8304600F002
:1002D00083FB4FF44C6000210090019101220292B7
:1002E0006946204600F078FB4FF4734100F00BF8AC
:1002F000204600F071FBC02100F005F8284600F010
:100300006BFB06B070BD00910122002102910391A8
:10031000019269467047F8B5804F402100F088F897
:1003200000F09CF8E8B900F086F8402100F080F871
:1003300000287AD17072002131720122FF2100F071
:100340009AF800F095F8307A2044017C00F076F8B5
:1003500000F07BF800F086F8EFDB00F079F8E4DAE3
:10036000E9E7802100F064F8E8B900F064F8802142
:1003700000F05EF8002858D170720021317201221D
:10038000FF2100F078F800F073F8307A2044017E05
:1003900000F054F800F059F800F064F8EFDB00F0DA
:1003A00057F8E4DAE9E700F041F8E0B900F043F883
:1003B00000F03CF8002838D170720021317201221F
:1003C000FF2100F058F800F053F8317A04F10800EA
:1003D00000F037F800F039F800F044F8EFDB00F0F7
:1003E00037F8E5DAE9E74FF4806100F021F8E0B989
:1003F00000F021F84FF4806100F01AF8A8B970728B
:10040000002131720122FF2100F035F800F030F8B0
:10041000307A215C00F012F800F017F800F022F8B2
:10042000F0DB00F015F8E5DAEAE7F1BD4FF4006122
:10043000384600F0A3BB0A2000F0C0BBC943C8B2D5
:100440001CE0425CD243D0B218E0012000F0B6BB01
:10045000707A401C7072C0B232287047304C2D4DFB
:10046000304E7047307A401C3072C0B20828704756
:10047000307A315C0022284600F086BB38B504464D
:10048000264D63064CBF012200224FF40041FFF7C6
:10049000F2FF20064CBF012200224FF48041FFF7FB
:1004A000EAFFA0064CBF012200224FF40051FFF7E3
:1004B000E2FFE0064CBF012200224FF48051FFF71B
:1004C000DAFF20074CBF012200224FF40071FFF732
:1004D000D2FF60074CBF012200224FF48071FFF76A
:1004E000CAFFE0070C4D4CBF012200228021FFF71C
:1004F000C2FFA0072846BDE838404CBF01220022B9
:10050000402100F041BB0000403802400070004034
:10051000303802400000024000080240000402405F
:100520000C0000200000002080B50B48016841F459
:1005300000710160026842F480620260016841F467
:1005400080710160032000F05AFB002000F0A0FB46
:1005500000F0BEFB002002BD003C0240002200F083
:10056000D3BB00002DE9F843040017D02078B74E24
:10057000C10745D5B06800F00C00042807D0B0686A
:1005800000F00C0008280BD17068410208D53068D3
:10059000810335D56068002840F0BA80012053E11E
:1005A0006068B0F5803F04D1306840F4803030603E
:1005B00011E0B0F5A02F306806D140F48020306003
:1005C000316841F4803105E020F4803030603168DA
:1005D00021F480213160606868B100F0AFFB05460E
:1005E0003068810300F1948000F0A8FB401B65286F
:1005F000F6D3032028E100F0A1FB05463068810313
:1006000040F1868000F09AFB401B6528F6D3F0E7A6
:1006100000F094FB401B022840F2A780E9E7E06865
:1006200070B10121396000F089FB0546306881070F
:1006300000F1CB8000F082FB401B0228F6D9D8E7FE
:10064000386000F07BFB05463168880763D500F011
:1006500075FB401B0228F7D9CBE7086000F06EFB62
:100660000546706F810775D500F068FB401B0228B6
:10067000F7D9BEE70528306F06D140F00400306797
:10068000306F40F0010005E0400840003067306FF7
:1006900020F00400306741F28938A06868B100F0AA
:1006A0004DFB8146306F810700F19C8000F046FBD6
:1006B000A0EB09004045F5D39BE700F03FFB8146E6
:1006C000306F810740F18E8000F038FBA0EB09000D
:1006D0004045F5D38DE700F031FB401B022840F286
:1006E000968086E700F02AFB001B022840F2A780D4
:1006F0007FE70020386600F021FB04463068810166
:1007000040F1A18000F01AFB001B0228F6D970E727
:1007100020784F4F81071BD5B06810F00C0F09D01F
:10072000B06800F00C0008287FF479AF70684102CF
:100730003FF575AF3068810703D5E06801287FF485
:100740002DAF3168206921F0F80141EAC001316024
:10075000217808070DD560693E4900283FF47DAF38
:1007600001220A6000F0EAFA0546706F81077FF502
:100770004FAF207841073AD5306C0025C1000AD42C
:1007800000950125316C41F080513164306C00F0EE
:10079000805000900098DFF8C080D8F80000C105B4
:1007A0001BD4D8F8000040F48070C8F8000000F0B6
:1007B000C5FA8146D8F80000C1050ED400F0BEFA93
:1007C000A0EB09000228F5D913E73068216920F071
:1007D000F80040EAC1003060BAE7A06801287FF461
:1007E00049AF4DE71DB1306C20F080503064A069F6
:1007F00048B3B16801F00C0108293FF4CFAE0228DC
:100800007FF477AF0020386600F098FA054630682C
:1008100081013FF560AFE269206A616A0243A06A24
:10082000400842EA8112401E42EA0042E06A42EA7F
:10083000006272600121396600F080FA0446306877
:1008400081017FF54FAF0020BDE8F2830038024000
:1008500000004742800E4742007000402DE9F04101
:1008600004000F4677D0404E306800F00F00B842C9
:1008700002D200F072F86ED120683C4D810712D58B
:10088000400703D5A96841F4E051A9602078010729
:1008900003D5A86840F46040A860A968A06821F06A
:1008A000F0010143A9602178C8074CD56068012890
:1008B00002D129688A0305E0022818BF032803D162
:1008C00029688A0103D446E029688A0743D5A968C4
:1008D000890840EA8100A86000F030FA8046A868E4
:1008E000616800F00C00B0EB810F2CD000F026FA0C
:1008F000A0EB080041F289318842F0D3032020E0C8
:100900002078410705D5AA68E06822F4E052024346
:10091000AA602178080706D5A968206921F46041FA
:1009200041EAC001A96000F027F8AA681049114BFC
:10093000C2F30312895CC8401860002000F0A8F9D7
:100940000020BDE8F081306800F00F008742D7D268
:1009500000F003F8D4D00120F3E73770316801F0DC
:100960000F01B94270470000003C024000380240CD
:10097000A40E00084800002030B5144C606800F058
:100980000C00042802D0082802D01DE0104830BD19
:10099000226820680023410202F03F0204D5256846
:1009A0000B49C5F3881003E020680A49C0F388109A
:1009B000A1FB000100F0C8F92168C1F30141491C05
:1009C0004900B0FBF1F030BD024830BD04380240B0
:1009D00040787D010024F4002DE9F84703460C46D9
:1009E0004FF000086A480F210122256802FA08FC2E
:1009F0000CEA0509E14540F0B9806568022D18BF91
:100A0000122D4FEA880A10D14FEAD80503EB850E64
:100A10000AF01C06DEF8205001FA06F7BD432769EC
:100A200007FA06F63543CEF820504FEA480E032564
:100A30001E68277905FA0EF5ED4307F003072E40EF
:100A400007FA0EF73E431E606668012E18BF022E9D
:100A500003D0112E18BF122E10D19E68E7682E40C9
:100A600007FA0EF73E439E605E6826EA0C0766684A
:100A7000C6F3001606FA08F63E435E60DE683540AF
:100A8000A66806FA0EF63543DD606568ED006DD5A3
:100A9000002500954FEA980C05683E4F45F48045C7
:100AA00005600AF00C0A056805F480450095009D74
:100AB00057F82C6001FA0AF526EA0505364EB342CE
:100AC00008BF002622D0354EB34208BF01261DD0F4
:100AD000334EB34208BF022618D0324EB34208BF8D
:100AE000032613D0304EB34208BF04260ED02F4E3B
:100AF000B34208BF052609D02D4EB34208BF0626D3
:100B000004D02C4EB3420CBF0726082606FA0AF67C
:100B1000354347F82C506FEA090C274F3D680CEA23
:100B2000050E6568EE0348BF49EA0E0EC7F800E0FF
:100B30007D680CEA050E6568AE0348BF49EA0E0EF3
:100B4000C7F804E0BD680CEA050E6568EE0248BF10
:100B500049EA0E0EC7F808E0FD680CEA050E656864
:100B6000AD0248BF49EA0E0EC7F80CE008F10108D3
:100B7000B8F10F0F7FF639AFBDE8F1870069084083
:100B800018BF0120C0B2704702B9090481617047E3
:100B9000443802400838014000000240000402408E
:100BA00000080240000C0240001002400014024005
:100BB00000180240001C0240003C014038B50446C9
:100BC00000F0BCF814F1010F054602D0044801788A
:100BD000641800F0B3F8401BA042FAD331BD00BF47
:100BE0003C0000200901020002D4244881547047CF
:100BF000234B02F00F021A4402F8041C7047214BE9
:100C000019684FF6FF020002114000F4E06008434B
:100C10001D4908431860704738B51A4B1C68C4F367
:100C20000223C3F10704052C28BF04241D1D072D32
:100C300034BF0023DB1E012505FA04F4641E2140A5
:100C4000994005FA03F35B1E1A401143BDE8344096
:100C5000C8E710B5401EB0F1807F01D3012010BD60
:100C60000A4C60600F214FF0FF30FFF7BBFF0021FF
:100C7000A16007202060002010BD000000E400E01B
:100C800018ED00E00CED00E00000FA0510E000E0D7
:100C900038B50D4D0D4B2A7804464FF47A7118681B
:100CA000B1FBF2F2B0FBF2F0FFF7D3FF50B9102C1A
:100CB00008D2002221464FF0FF30FFF7ADFFAC60B5
:100CC000002032BD012032BD3C0000204800002041
:100CD00081B00020009000220A48416841F4804120
:100CE0004160416801F480410091009900920368DD
:100CF00043F080530360006800F08050009000983B
:100D000001B070474038024000B500BF130096465E
:100D10009446103928BFA0E80C50FAD85FEA417C0D
:100D200028BF0CC048BF40F8042BC90728BF20F8D3
:100D3000022B48BF00F8012B00BD000001484068AD
:100D4000704700BF3C000020D3BBD9B1B2F5803F53
:100D50005BD2022A1ED98C46B1FBF2F102FB11C311
:100D60001B0443EA1043B3FBF2FC02FB1C3380B2CA
:100D700040EA0343B3FBF2F002FB103240EA0C40BE
:100D800000237047022A05D98446B0FBF2F002FB2B
:100D900010C270474AB105D100F0010249085FEA6C
:100DA0003000704700220023704700F051B80B005C
:100DB0000200002100207047F7D300220023704773
:100DC000904271EB030CF2D370B5B1FA81F4B3FA2F
:100DD00083F52C1BA340C4F1200532FA05F63343FA
:100DE000A2405FF00046E64002E05B085FEA3202A4
:100DF000841A71EB030524BF204629467641F4D3BB
:100E000002000B003000002170BD70B5B1FA81F412
:100E1000B2FA82F5C4F120046419B4F12006DAD3E1
:100E2000B2405FF00044F440002502E052085FEA5F
:100E30003303C61A71EB020E24BF3046714664417B
:100E40006D41F3D302000B002000290070BD0000AB
:100E5000704700000E48016841F4700101600022F3
:100E60000C49086840F0010008608A600B680A4875
:100E70000A4A03400B604A6000200B68084A23F4CA
:100E800080230B60C8604FF0006111607047000064
:100E900088ED00E000380240FFFFF6FE103000242D
:100EA00008ED00E000000000000000000102030463
:100EB0000607080930B5016884684218416802EBEA
:100EC0005103C9070BD54C4409E012F9011B12F874
:100ED000015B002904F8015B05D5491CF9D19A4250
:100EE000F3D10C3030BD491EF1D5F8E710B50749F4
:100EF00079441831064C7C44163404E00A68081D15
:100F0000114488470146A142F8D110BD2C000000D1
:100F1000380000004EF68851CEF20001086840F417
:100F200070000860BFF34F8FBFF36F8F4FF00070FA
:100F3000E1EE100A704700007DFFFFFFCC010000CA
:100F40007C0000000000002000F00DF8002801D017
:100F5000FFF7CCFFAFF300800020AFF30080FFF776
:100F600013F900F002F80120704700F001B800000A
:100F70000746384600F002F8FBE7000080B5AFF303
:100F80000080024A11001820ABBEFBE726000200D9
:100F90007047FEE7FEE7FEE7FEE7704770477047E1
:100FA00000F000B80248416802788A184260704731
:100FB0003C0000200148804701480047550E0008CA
:100FC000C50F0008AFF30080FFF7A4FFFFF7BCFFD9
:100FD000FFF7FEBFFFF7FEBFFFF7FEBFFFF7FEBF45
:100FE000FFF7FEBFFFF7FEBFFFF7FEBFFFF7FEBF35
:100FF000FFF7FEBFFFF7FEBFFFF7FEBFFFF7FEBF25
:10100000FFF7FEBFFFF7FEBFFFF7FEBFFFF7FEBF14
:10101000FFF7FEBFFFF7FEBFFFF7FEBFFFF7FEBF04
:10102000FFF7FEBFFFF7FEBFFFF7FEBFFFF7FEBFF4
:10103000FFF7FEBFFFF7FEBFFFF7FEBFFFF7FEBFE4
:10104000FFF7FEBFFFF7FEBFFFF7FEBFFFF7FEBFD4
:10105000FFF7FEBFFFF7FEBFFFF7FEBFFFF7FEBFC4
:10106000FFF7FEBFFFF7FEBFFFF7FEBFFFF7FEBFB4
:10107000FFF7FEBFFFF7FEBFFFF7FEBFFFF7FEBFA4
:10108000FFF7FEBFFFF7FEBFFFF7FEBFFFF7FEBF94
:10109000FFF7FEBFFFF7FEBFFFF7FEBFFFF7FEBF84
:1010A000FFF7FEBFFFF7FEBFFFF7FEBFFFF7FEBF74
:1010B000FFF7FEBFFFF7FEBFFFF7FEBFFFF7FEBF64
:1010C000FFF7FEBFFFF7FEBFFFF7FEBFFFF7FEBF54
:1010D000FFF7FEBFFFF7FEBFFFF7FEBFFFF7FEBF44
:1010E000FFF7FEBFFFF7FEBFFFF7FEBFFFF7FEBF34
:1010F000FFF7FEBFFFF7FEBFFFF7FEBFFFF7FEBF24
:10110000FFF7FEBFFFF7FEBF074080201008040175
:1011100002FB00053E100804023EFD00FC4A037E6F
:1011200000003EFC40003EFD0002427E42FD000702
:101130000C1222444422120CF8000001F9000010A5
:06114000FC000224F40093
:0400000508000FC51B
:00000001FF
