:020000040800F2
:1000000020040020DD0C0008B90C0008BB0C00081F
:10001000BD0C0008BF0C0008C10C00080000000067
:10002000000000000000000000000000C30C0008F9
:10003000C50C000800000000C70C0008C90C00082F
:10004000F90C0008FD0C0008010D0008050D000862
:10005000090D00080D0D0008110D0008150D000810
:10006000190D00081D0D0008210D0008250D0008C0
:10007000290D00082D0D0008310D0008350D000870
:10008000390D00083D0D0008410D0008450D000820
:10009000490D00084D0D0008510D0008550D0008D0
:1000A000590D00085D0D0008610D0008650D000880
:1000B000690D00086D0D0008710D0008750D000830
:1000C000790D00087D0D0008810D0008850D0008E0
:1000D000890D00088D0D0008910D0008950D000890
:1000E000990D00089D0D0008A10D0008A50D000840
:1000F000A90D0008AD0D0008B10D0008B50D0008F0
:10010000B90D0008BD0D0008C10D0008C50D00089F
:10011000C90D0008CD0D0008D10D0008D50D00084F
:10012000D90D0008DD0D0008E10D0008E50D0008FF
:10013000E90D00080000000000000000ED0D0008BF
:10014000F10D0008F50D0008F90D0008FD0D00087F
:10015000010E0008050E0008090E00080D0E00082B
:10016000110E0008150E0008190E00081D0E0008DB
:10017000210E0008250E000800000000000000000D
:10018000290E00082D0E00082DE9F843040017D0B1
:100190002078B74EC10745D5B06800F00C000428A0
:1001A00007D0B06800F00C0008280BD1706841023D
:1001B00008D53068810335D56068002840F0BA80E2
:1001C000012053E16068B0F5803F04D1306840F40D
:1001D0008030306011E0B0F5A02F306806D140F4D7
:1001E00080203060316841F4803105E020F48030B7
:1001F0003060316821F480213160606868B100F0BE
:100200003FF905463068810300F1948000F038F929
:10021000401B6528F6D3032028E100F031F905469C
:100220003068810340F1868000F02AF9401B652880
:10023000F6D3F0E700F024F9401B022840F2A78033
:10024000E9E7E06870B10121396000F019F905466D
:100250003068810700F1CB8000F012F9401B0228C2
:10026000F6D9D8E7386000F00BF905463168880701
:1002700063D500F005F9401B0228F7D9CBE70860E9
:1002800000F0FEF80546706F810775D500F0F8F8AC
:10029000401B0228F7D9BEE70528306F06D140F091
:1002A00004003067306F40F0010005E04008400076
:1002B0003067306F20F00400306741F28938A06861
:1002C00068B100F0DDF88146306F810700F19C8055
:1002D00000F0D6F8A0EB09004045F5D39BE700F00D
:1002E000CFF88146306F810740F18E8000F0C8F86A
:1002F000A0EB09004045F5D38DE700F0C1F8401BA5
:10030000022840F2968086E700F0BAF8001B022827
:1003100040F2A7807FE70020386600F0B1F804467D
:100320003068810140F1A18000F0AAF8001B02288A
:10033000F6D970E720784F4F81071BD5B06810F0D1
:100340000C0F09D0B06800F00C0008287FF479AFDA
:10035000706841023FF575AF3068810703D5E068EA
:1003600001287FF42DAF3168206921F0F80141EABE
:10037000C0013160217808070DD560693E49002829
:100380003FF47DAF01220A6000F07AF80546706FF5
:1003900081077FF54FAF207841073AD5306C0025B3
:1003A000C1000AD400950125316C41F080513164BF
:1003B000306C00F0805000900098DFF8C080D8F8D2
:1003C0000000C1051BD4D8F8000040F48070C8F8C4
:1003D000000000F055F88146D8F80000C1050ED4A1
:1003E00000F04EF8A0EB09000228F5D913E73068B9
:1003F000216920F0F80040EAC1003060BAE7A06847
:1004000001287FF449AF4DE71DB1306C20F08050DA
:100410003064A06948B3B16801F00C0108293FF4C9
:10042000CFAE02287FF477AF0020386600F028F8BE
:100430000546306881013FF560AFE269206A616A74
:100440000243A06A400842EA8112401E42EA00428A
:10045000E06A42EA006272600121396600F010F839
:100460000446306881017FF54FAF0020BDE8F2837C
:100470000038024000004742800E474200700040B2
:1004800001484068704700BF0C00002038B500F0FC
:1004900045F900F08DF8DFF86002016841F00101D4
:1004A00001600024026842F002020260016841F02B
:1004B00004010160E0B200F0FFF8641CE0B208281B
:1004C000F8DB0C24E0B200F0FAF8641CE0B210286B
:1004D000F8DB082000F0F3F8092000F0F0F806201F
:1004E00000F007F9072000F004F9DFF81042DFF808
:1004F0001052002060720122607A215C00F097F8AF
:10050000607A00F04BF8F6DB002060720021217267
:10051000607A215C0A04AA612846002200F018F9DA
:1005200094F9081001208840C043C0B200F082F85E
:10053000642000F011F9607A225CAA61217A491CDA
:100540002172C9B20829E3DB00F028F8DEDB0020C5
:100550006072607A00F027F84FF4487000F0FCF801
:10056000607A225CAA6100F019F8F2DB0020607268
:1005700000212172207A00F016F800F052F8207A5B
:10058000225CAA61401C2072C0B20828F2DB607AAB
:10059000401C6072C0B25028B6DAE9E7401C6072B5
:1005A000C0B208287047215C0904A961002041E01D
:1005B00080B592B006A8302100F0E2F801A814211D
:1005C00000F0DEF80020009001234E48016841F061
:1005D000805101600021006800F080500090009878
:1005E00049480091026842F4804202600222006899
:1005F00000F48040009006A8009906921021002285
:1006000009930A910C92FFF7BFFD0F200190002182
:10061000029103910491059101A800F0B5F813B07F
:1006200000BD012000F098B8307A315C00222846E5
:1006300000F08EB83649420647BF4FF400430B60C6
:100640004FF000420A60030647BF4FF480420A6041
:100650004FF080430B60820647BF4FF400530B609E
:100660004FF000520A60C30647BF4FF480520A6041
:100670004FF080530B60020747BF4FF400730B60CD
:100680004FF000720A60430747BF4FF480720A6060
:100690004FF080730B601F49C20747BF80230B6078
:1006A0004FF400020A60800702D540220A607047BA
:1006B0004FF480000860704730B5114901E030B553
:1006C0001249430003240A689C40E4430125224068
:1006D00005FA03F31A430A6005FA00F08A6822401B
:1006E0008A604A6822EA00004860C8680440CC601A
:1006F00030BD30B50849E4E7303802400000002042
:1007000000000240403802400070004000040240F7
:1007100018040240180802400008024080B50B4847
:10072000016841F400710160026842F48062026075
:10073000016841F480710160032000F0F0F80020AE
:1007400000F036F900F054F9002002BD003C0240F0
:1007500002B909048161704738B50446FFF790FE7D
:1007600014F1010F054602D0044801786418FFF720
:1007700087FE401BA042FAD331BD00BF0C00002011
:10078000002200F051B900002DE9F04104000F46AD
:1007900077D0404E306800F00F00B84202D200F02F
:1007A00072F86ED120683C4D810712D5400703D501
:1007B000A96841F4E051A9602078010703D5A86831
:1007C00040F46040A860A968A06821F0F0010143EE
:1007D000A9602178C8074CD56068012802D1296832
:1007E0008A0305E0022818BF032803D129688A017B
:1007F00003D446E029688A0743D5A968890840EAF6
:100800008100A860FFF73CFE8046A868616800F0A0
:100810000C00B0EB810F2CD0FFF732FEA0EB0800EC
:1008200041F289318842F0D3032020E0207841074B
:1008300005D5AA68E06822F4E0520243AA60217854
:10084000080706D5A968206921F4604141EAC00182
:10085000A96000F027F8AA681049114BC2F30312EF
:10086000895CC8401860002000F0A2F80020BDE8B4
:10087000F081306800F00F008742D7D200F003F813
:10088000D4D00120F3E73770316801F00F01B9428D
:1008900070470000003C024000380240B80B0008DE
:1008A0001800002030B5144C606800F00C000428DB
:1008B00002D0082802D01DE0104830BD2268206810
:1008C0000023410202F03F0204D525680B49C5F31D
:1008D000881003E020680A49C0F38810A1FB0001DA
:1008E00000F0BCF82168C1F30141491C4900B0FB8C
:1008F000F1F030BD024830BD0438024040787D013F
:100900000024F4000901020002D4244881547047F5
:10091000234B02F00F021A4402F8041C7047214BCB
:1009200019684FF6FF020002114000F4E06008432E
:100930001D4908431860704738B51A4B1C68C4F34A
:100940000223C3F10704052C28BF04241D1D072D15
:1009500034BF0023DB1E012505FA04F4641E214088
:10096000994005FA03F35B1E1A401143BDE8344079
:10097000C8E710B5401EB0F1807F01D3012010BD43
:100980000A4C60600F214FF0FF30FFF7BBFF0021E2
:10099000A16007202060002010BD000000E400E0FE
:1009A00018ED00E00CED00E00000FA0510E000E0BA
:1009B00038B50D4D0D4B2A7804464FF47A711868FE
:1009C000B1FBF2F2B0FBF2F0FFF7D3FF50B9102CFD
:1009D00008D2002221464FF0FF30FFF7ADFFAC6098
:1009E000002032BD012032BD0C0000201800002084
:1009F00081B00020009000220A48416841F4804103
:100A00004160416801F480410091009900920368BF
:100A100043F080530360006800F08050009000981D
:100A200001B070474038024000B500BF1300964641
:100A30009446103928BFA0E80C50FAD85FEA417CF0
:100A400028BF0CC048BF40F8042BC90728BF20F8B6
:100A5000022B48BF00F8012B00BD0000D3BBD9B169
:100A6000B2F5803F5BD2022A1ED98C46B1FBF2F16F
:100A700002FB11C31B0443EA1043B3FBF2FC02FB6D
:100A80001C3380B240EA0343B3FBF2F002FB1032A6
:100A900040EA0C4000237047022A05D98446B0FB87
:100AA000F2F002FB10C270474AB105D100F001021A
:100AB00049085FEA3000704700220023704700F0C9
:100AC00051B80B000200002100207047F7D300222C
:100AD00000237047904271EB030CF2D370B5B1FA6A
:100AE00081F4B3FA83F52C1BA340C4F1200532FA3C
:100AF00005F63343A2405FF00046E64002E05B08A3
:100B00005FEA3202841A71EB030524BF20462946AE
:100B10007641F4D302000B003000002170BD70B5A7
:100B2000B1FA81F4B2FA82F5C4F120046419B4F187
:100B30002006DAD3B2405FF00044F440002502E022
:100B400052085FEA3303C61A71EB020E24BF304627
:100B5000714664416D41F3D302000B00200029006F
:100B600070BD0000704700000E48016841F470013C
:100B7000016000220C49086840F0010008608A60AA
:100B80000B680A480A4A03400B604A6000200B6861
:100B9000084A23F480230B60C8604FF000611160A5
:100BA0007047000088ED00E000380240FFFFF6FECD
:100BB0001030002408ED00E00000000000000000FC
:100BC000010203040607080930B450F8041B79B188
:100BD0000268436802440830DC0744BFA9F10104FD
:100BE000E31852F8045B43F8045B091FF9D1ECE702
:100BF00030BC704710B5074979441831064C7C4425
:100C0000163404E00A68081D114488470146A142D1
:100C1000F8D110BD2C0000003C0000004EF68851B9
:100C2000CEF20001086840F470000860BFF34F8FF7
:100C3000BFF36F8F4FF00070E1EE100A70470000B5
:100C400089FFFFFF1C00000054000000000000208E
:100C50000000000000F00DF8002801D0FFF7CAFFE7
:100C6000AFF300800020AFF30080FFF70FFC00F02F
:100C700002F80120704700F001B80000074638462E
:100C800000F002F8FBE7000080B5AFF30080024AF5
:100C900011001820ABBEFBE72600020040802010A8
:100CA0000804010200000000010000000000000034
:100CB000100000000024F4007047FEE7FEE7FEE7A6
:100CC000FEE770477047704700F000B8024841687F
:100CD00002788A18426070470C0000200148804763
:100CE00001480047690B0008ED0C0008AFF30080D5
:100CF000FFF794FFFFF7AEFFFFF7FEBFFFF7FEBF62
:100D0000FFF7FEBFFFF7FEBFFFF7FEBFFFF7FEBF17
:100D1000FFF7FEBFFFF7FEBFFFF7FEBFFFF7FEBF07
:100D2000FFF7FEBFFFF7FEBFFFF7FEBFFFF7FEBFF7
:100D3000FFF7FEBFFFF7FEBFFFF7FEBFFFF7FEBFE7
:100D4000FFF7FEBFFFF7FEBFFFF7FEBFFFF7FEBFD7
:100D5000FFF7FEBFFFF7FEBFFFF7FEBFFFF7FEBFC7
:100D6000FFF7FEBFFFF7FEBFFFF7FEBFFFF7FEBFB7
:100D7000FFF7FEBFFFF7FEBFFFF7FEBFFFF7FEBFA7
:100D8000FFF7FEBFFFF7FEBFFFF7FEBFFFF7FEBF97
:100D9000FFF7FEBFFFF7FEBFFFF7FEBFFFF7FEBF87
:100DA000FFF7FEBFFFF7FEBFFFF7FEBFFFF7FEBF77
:100DB000FFF7FEBFFFF7FEBFFFF7FEBFFFF7FEBF67
:100DC000FFF7FEBFFFF7FEBFFFF7FEBFFFF7FEBF57
:100DD000FFF7FEBFFFF7FEBFFFF7FEBFFFF7FEBF47
:100DE000FFF7FEBFFFF7FEBFFFF7FEBFFFF7FEBF37
:100DF000FFF7FEBFFFF7FEBFFFF7FEBFFFF7FEBF27
:100E0000FFF7FEBFFFF7FEBFFFF7FEBFFFF7FEBF16
:100E1000FFF7FEBFFFF7FEBFFFF7FEBFFFF7FEBF06
:100E2000FFF7FEBFFFF7FEBFFFF7FEBFFFF7FEBFF6
:0400000508000CEDF6
:00000001FF
