:020000040800F2
:10000000500400209D010008C9130008AD1200082B
:10001000C5130008A90200080F180008000000001E
:10002000000000000000000000000000CD130008E8
:10003000AD02000800000000CB130008CF13000839
:10004000B7010008B7010008B7010008B7010008B0
:10005000B7010008B7010008B7010008B7010008A0
:10006000B7010008B7010008B7010008B701000890
:10007000B7010008B7010008B7010008B701000880
:10008000B7010008B7010008B7010008B701000870
:10009000B7010008B7010008B7010008B701000860
:1000A000B7010008B7010008B7010008B701000850
:1000B000D5140008B7010008B7010008B70100080F
:1000C000B7010008B7010008B7010008B701000830
:1000D000B7010008B7010008B7010008B701000820
:1000E000B7010008B7010008B7010008B701000810
:1000F000B7010008B7010008B7010008B701000800
:10010000B7010008B7010008B7010008B7010008EF
:10011000B7010008B7010008B7010008B7010008DF
:10012000B7010008B7010008B7010008B7010008CF
:10013000B70100080000000000000000B70100083F
:10014000B7010008B7010008B7010008B7010008AF
:10015000B7010008B7010008B7010008B70100089F
:10016000B7010008B7010008B7010008B70100088F
:10017000B7010008B70100080000000000000000FF
:10018000B7010008B7010008DFF80CD000F07AF8DA
:10019000004800476D1800085004002006488047BA
:1001A00006480047FEE7FEE7FEE7FEE7FEE7FEE75C
:1001B000FEE7FEE7FEE7FEE771140008890100088C
:1001C0002DE9F05F0546002092469B46884606468C
:1001D000814640241BE0284641464746224600F01F
:1001E00041F853465A46C01A914110D31146184659
:1001F000224600F028F82D1A67EB01084F462246E8
:100200000120002100F01FF817EB00094E41201ECD
:10021000A4F10104DFDC484631462A464346BDE8E6
:10022000F09FD2B201E000F8012B491EFBD27047CB
:100230000022F6E710B513460A4604461946FFF7B2
:10024000F0FF204610BD202A04DB203A00FA02F11C
:10025000002070479140C2F1200320FA03F31943B4
:1002600090407047202A04DB203A21FA02F0002156
:10027000704721FA02F3D040C2F1200291400843B6
:1002800019467047064C074D06E0E06840F0010350
:1002900094E8070098471034AC42F6D3FFF778FF94
:1002A000C0180008E018000800BFFEE7704770475C
:1002B00070B5044600F010F906462546681C10B1DA
:1002C00004480078054400BF00F006F9801BA842EE
:1002D000FAD370BD08000020F8B502460B46002591
:1002E000002400200021DCE0012606FA01F51E684A
:1002F00006EA0504AC4273D15E68022E02D05E6845
:10030000122E13D1CF0802F1200656F827004E070F
:10031000F70E0F26BE40B0434F07FF0E1E69BE40CA
:100320003043CF0802F1200646F8270010684F003E
:100330000326BE40B0431E7906F003064F00BE40C0
:10034000304310605E68012E08D05E68022E05D032
:100350005E68112E02D05E68122E13D190684F0095
:100360000326BE40B0434F00DE68BE40304390607D
:10037000506801268E40B0431E79C6F300168E40A9
:1003800030435060D0684F000326BE40B0434F005A
:100390009E68BE403043D0605E6806F08056B6F17D
:1003A000805F7DD100BF00260096404E366846F43F
:1003B00080463E4F3E603E46366806F480460096D4
:1003C00000BF00BF3A4E8F0856F827008E07370F40
:1003D0000F26BE40B043374EB24202D1002624E081
:1003E0005EE0354EB24201D101261EE0334EB242EC
:1003F00001D1022619E0324EB24201D1032614E0A7
:10040000304EB24201D104260FE02F4EB24201D14C
:1004100005260AE02D4EB24201D1062605E02C4EFB
:10042000B24201D1072600E008268F073F0FBE40E9
:1004300030431F4E8F0846F82700264E3068A043F1
:100440005E6806F48036B6F5803F00D12043214E29
:100450003060361D3068A0435E6806F40036B6F59D
:10046000003F00D120431B4E361D3060361D3068E2
:10047000A0435E6806F48016B6F5801F00D12043C5
:10048000144E08363060361D3068A0435E6806F4AE
:100490000016B6F5001F00D120430E4E0C3630601A
:1004A000491C1029FFF420AFF8BD00004438024079
:1004B00008380140000002400004024000080240E9
:1004C000000C0240001002400014024000180240DC
:1004D000001C0240003C01400148006870470000D9
:1004E00000000020034800680349097808440149D6
:1004F00008607047000000200800002010B50D487B
:10050000006840F400700B4908600846006840F439
:10051000806008600846006840F48070086003202E
:1005200000F0A2F8002000F007F800F02BF80020FF
:1005300010BD0000003C024070B504460E48007833
:100540004FF47A71B1FBF0F00C490968B1FBF0F59A
:10055000284600F0D9FB08B1012070BD102C07D24D
:1005600000222146501E00F041F80548046001E0D9
:100570000120F2E70020F0E7080000200C00002036
:100580000400002008B500BF002000900E4800685D
:1005900040F480400C4908600846006800F4804040
:1005A000009000BF00BF00BF00200090081F00683F
:1005B00040F08050091F08600846006800F0805035
:1005C000009000BF00BF08BD443802400146084605
:1005D000002809DB00F01F0301229A4043099B0019
:1005E00003F1E023C3F8002100BF70472DE9F05F5D
:1005F00080460D461646002701F00CF9074639469D
:100600002A46334601F00700C0F1070ABAF1040F89
:1006100002D94FF0040A01E0C0F1070AD14600F107
:10062000040ABAF1070F02D24FF0000A01E0A0F16C
:10063000030AD4464FF0010A0AFA09FAAAF1010A9C
:100640000AEA020A0AFA0CFA4FF0010B0BFA0CFB49
:10065000ABF1010B0BEA030B4AEA0B0421464046BF
:1006600001F0E0F8BDE8F09F00BF00F00702064B84
:1006700019684FF6FF031940044B0B4343EA02216C
:10068000014B196000BF70470CED00E00000FA0557
:1006900070B504460D460CB9012070BD584800687D
:1006A00000F00F00A84209D255490D7008460068B5
:1006B00000F00F00A84201D00120EEE7207800F002
:1006C000020002281DD1207800F00400042805D182
:1006D0004C48006840F4E0504A490860207800F037
:1006E0000800082805D14748006840F460404549A3
:1006F00008604448006820F0F000A16808434149C0
:100700000860207800F00100A8B36068012807D1D4
:100710003C4808380068C0F34040B8B90120BCE745
:100720006068022802D06068032807D1354808387D
:100730000068C0F3406048B90120AEE7314808388E
:100740000068C0F3400008B90120A6E72D48006802
:1007500020F00300616808432A490860FFF7BCFEE7
:10076000064609E0FFF7B8FE801B41F28831884257
:1007700002D9032091E707E02248006800F00C004E
:100780006168B0EB810FEDD11D48006800F00F00EB
:10079000A84209D91A490D700846006800F00F00F8
:1007A000A84201D0012078E7207800F00400042856
:1007B00007D11448006820F4E050E168084311496B
:1007C0000860207800F00800082808D10D4800686B
:1007D00020F46040216940EAC1000A49086000F045
:1007E00017F808490968C1F30311074A515CC8406A
:1007F000064908600020FFF79FFE00204DE700003B
:10080000003C024008380240A81800080C000020F4
:100810002DE9F047002400250026A1462548006860
:1008200000F00C0020B1042805D008283AD105E0DA
:10083000DFF8849039E0DFF8849036E01D48001F2F
:10084000006800F03F041B48001F006800F48000AF
:1008500078B11A481749091F0968C1F38811A0FB2C
:1008600001700146224600233846FFF7A9FC0546E1
:100870000EE011480F49091F0968C1F38811A0FB58
:1008800001700146224600233846FFF799FC0546D1
:100890000848001F0068C0F30140401C4600B5FB3B
:1008A000F6F902E0DFF8109000BF00BF4846BDE84F
:1008B000F0870000083802400024F40040787D01F1
:1008C000F8B504460CB90120F8BD207800F001000D
:1008D000002874D0F948006800F00C0004280DD0FE
:1008E000F648006800F00C00082813D1F348001FF8
:1008F000006800F48000B0F5800F0BD1EF48083895
:100900000068C0F34040002859D06068002856D1E4
:100910000120D9E700BF6068B0F5803F08D1E74803
:100920000838006840F48030E449083908601EE067
:100930006068B0F5A02F0DD1E0480838006840F499
:100940008020DE49083908600846006840F480309D
:1009500008600CE0D9480838006820F48030D74996
:10096000083908600846006820F48020086000BF4D
:10097000606890B1FFF7B0FD054606E0FFF7ACFDFB
:10098000401B642801D903209EE7CC480838006842
:10099000C0F340400028F1D011E0FFF79DFD05466F
:1009A00006E0FFF799FD401B642801D903208BE77F
:1009B000C24808380068C0F340400028F1D12078D0
:1009C00000F0020002285FD1BC48006800F00C0073
:1009D00058B1BA48006800F00C0008281CD1B7488C
:1009E000001F006800F48000B0B9B44808380068FF
:1009F000C0F3400020B1E068012801D0012063E786
:100A0000AE480838006820F0F800216940EAC100CB
:100A1000AA490839086037E0E06800B30120A84916
:100A20000860FFF759FD054606E0FFF755FD401B3E
:100A3000022801D9032047E7A04808380068C0F31E
:100A400040000028F1D09D480838006820F0F800E8
:100A5000216940EAC10099490839086014E0002082
:100A600097490860FFF738FD054606E0FFF734FDBB
:100A7000401B022801D9032026E790480838006867
:100A8000C0F340000028F1D1207800F008000828C9
:100A90002CD16069A8B101208A490860FFF71CFDCC
:100AA000054606E0FFF718FD401B022801D9032088
:100AB0000AE782486C300068C0F340000028F1D09B
:100AC00014E000207F490860FFF706FD054606E0B8
:100AD000FFF702FD401B022801D90320F4E6774806
:100AE0006C300068C0F340000028F1D1207800F09D
:100AF0000400042870D1002670483830006800F0E7
:100B0000805090B900BF002000906C4838300068D9
:100B100040F080506949383108600846006800F0AC
:100B20008050009000BF00BF01266748006800F4B5
:100B30008070B0B96448006840F480706249086011
:100B4000FFF7CAFC054606E0FFF7C6FC401B02287B
:100B500001D90320B8E65C48006800F480700028E2
:100B6000F2D000BFA068012808D15448683000685E
:100B700040F001005149683108601DE0A068052877
:100B80000DD14E486830006840F004004B49683190
:100B900008600846006840F0010008600CE0474823
:100BA0006830006820F00100444968310860084658
:100BB000006820F00400086000BFA068A8B1FFF73B
:100BC0008BFC054609E0FFF787FC401B41F28831AA
:100BD000884202D9032077E626E03848683000686A
:100BE000C0F340000028EED013E0FFF775FC054687
:100BF00008E0FFF771FC401B41F28831884201D9BF
:100C0000032061E62D4868300068C0F340000028EA
:100C1000EFD1012E07D129483830006820F08050EC
:100C200026493831086000BFA069B8B3234800687E
:100C300000F00C0008285ED0A069022846D10020F0
:100C40001F490866FFF748FC054606E0FFF744FC2D
:100C5000401B022801D9032036E6184808380068EE
:100C6000C0F340600028F1D1D4E907010843616A6C
:100C700040EA81110122A06AC2EB500041EA004122
:100C80002C20005D41EA00600C49091F086001202A
:100C90000B490866FFF720FC054607E02DE0FFF74B
:100CA0001BFC401B022801D903200DE6034808382D
:100CB0000068C0F340600028F1D01EE00838024010
:100CC00000004742800E47420070004000200C495F
:100CD0000866FFF701FC054606E0FFF7FDFB401B39
:100CE000022801D90320EFE506480068C0F3406000
:100CF0000028F2D101E00120E6E50020E4E5000053
:100D0000000047420038024070B504462546681E80
:100D1000B0F1807F01D301200FE0681E4FF0E02189
:100D200048610F214FF0FF3000F07CFD00204FF0B4
:100D3000E021886107200861002070BD704770477E
:100D400010B5024600BF92F83C00012801D10220F4
:100D500010BD012082F83C0000BF022082F83D0057
:100D6000106843681068846823F0700308680343C0
:100D700024F080044868044310684360106884606D
:100D8000012082F83D0000BF002082F83C0000BF37
:100D900000BFDDE710B504460CB9012010BD94F882
:100DA0003D0028B9002084F83C00204600F00CF8F3
:100DB000022084F83D00211D206800F093FB0120F3
:100DC00084F83D000020E9E738B504462068B0F11A
:100DD000804F17D100BF002000900B48006840F002
:100DE0000100094908600846006800F00100009011
:100DF00000BF00BF002211461C20FFF7F7FB1C209C
:100E0000FFF7E4FB38BD0000403802402DE9F04117
:100E100004460D4600BF94F83C00012802D1022090
:100E2000BDE8F081012084F83C0000BF022084F876
:100E30003D002068866826F0770626F47F46206805
:100E400086602868502833D00CDC202850D004DC81
:100E500000284BD0102851D149E0302849D04028F3
:100E60004CD139E060282DD0702807D0B0F5805FD4
:100E700003D0B0F5005F41D10DE040E0D5E90213A9
:100E80006A68206800F0ABFB2068866846F0770649
:100E90002068866033E0D5E902136A68206800F0B4
:100EA0009EFB2068806840F480402168886026E0CE
:100EB000EA686968206800F083FC5021206800F02F
:100EC00099FB1CE0EA686968206800F08CFC6021EE
:100ED000206800F08FFB12E0EA686968206800F083
:100EE0006FFC4021206800F085FB08E000BF00BFD8
:100EF00000BF2968206800F07DFB00E000BF00BF54
:100F0000012084F83D0000BF002084F83C0000BFB1
:100F100000BF85E7704710B5044620680069C0F33C
:100F20004000D8B12068C068C0F34000B0B16FF095
:100F3000020021680861012020772068806900F0A4
:100F4000030018B12046FFF7E5FF05E0204600F05A
:100F5000DDF8204600F07AF900202077206800694B
:100F6000C0F38000D8B12068C068C0F38000B0B181
:100F70006FF00400216808610220207720688069F2
:100F800000F4407018B12046FFF7C4FF05E020468A
:100F900000F0BCF8204600F059F9002020772068C6
:100FA0000069C0F3C000D8B12068C068C0F3C000B9
:100FB000B0B16FF008002168086104202077206834
:100FC000C06900F0030018B12046FFF7A3FF05E059
:100FD000204600F09BF8204600F038F900202077EA
:100FE00020680069C0F30010D8B12068C068C0F361
:100FF0000010B0B16FF01000216808610820207760
:101000002068C06900F4407018B12046FFF782FFE5
:1010100005E0204600F07AF8204600F017F900209D
:1010200020772068006900F0010058B12068C0688E
:1010300000F0010030B16FF0010021680861204626
:1010400000F032F920680069C0F3C01058B1206880
:10105000C068C0F3C01030B16FF080002168086133
:101060002046FFF76BFE20680069C0F3801058B17E
:101070002068C068C0F3801030B16FF04000216874
:101080000861204600F011F920680069C0F34010A3
:1010900058B12068C068C0F3401030B16FF0200034
:1010A000216808612046FFF74AFE10BD10B586B0E2
:1010B0000446142101A8FFF7BBF82068B0F1804F67
:1010C0001DD100BF002000900E48006840F00100D4
:1010D0000C4908600846006800F00100009000BF5D
:1010E00000BF4FF4004001900220029000200390C6
:1010F00004900120059001A90348FFF7EDF806B020
:1011000010BD00003038024000000240704770B54A
:1011100004460D46164600BF94F83C00012801D154
:10112000022070BD012084F83C0000BF022084F83A
:101130003D0036B1042E1BD0082E31D00C2E5ED1CE
:1011400045E02946206800F05FFA2068806940F099
:101150000800216888612068806920F00400216807
:10116000886120688069296908432168886147E0AF
:101170002946206800F080FA2068806940F4006009
:10118000216888612068806920F480602168886116
:1011900020688069296940EA0120216888612FE080
:1011A0002946206800F0A6FA2068C06940F00800CF
:1011B0002168C8612068C06920F004002168C86106
:1011C0002068C069296908432168C86118E0294678
:1011D000206800F0CBFA2068C06940F40060216804
:1011E000C8612068C06920F480602168C8612068F7
:1011F000C069296940EA01202168C86100E000BF98
:1012000000BF012084F83D0000BF002084F83C00AE
:1012100000BF00BF85E710B504460CB9012010BD22
:1012200094F83D0028B9002084F83C00204600F0E6
:101230000CF8022084F83D00211D206800F052F9CE
:10124000012084F83D000020E9E770477047000066
:1012500070B504460E4601223146206800F0AEF912
:101260000F492068884203D00E492068884201D186
:10127000012000E0002028B12068406C40F40040CC
:10128000216848642068806800F00705062D05D0B5
:101290002068006840F0010021680860002070BDEF
:1012A00000000140000401407047704700BFFEE7A6
:1012B00010B58EB0044600200A900B900C900D9053
:1012C000089009901C2101A8FEF7B2FF6020019050
:1012D000601E0290002003900590002201A905489D
:1012E000FFF715FF08B1FEF7E2FF0248FFF7DEFE49
:1012F0000EB010BD1000002008B500BF0020009007
:101300000648006840F0010004490860084600688B
:1013100000F00100009000BF00BF08BD303802405F
:1013200000B58DB0002009900A900B900C900790AA
:1013300008901C216846FEF77BFF4FF08040204953
:1013400008604FF4FA60486000211D4881609F21C9
:10135000C160002101618161FFF71CFD08B1FEF74A
:10136000A6FF4FF48050099009A91548FFF74EFDDC
:1013700008B1FEF79CFF1248FFF74DFF08B1FEF7DA
:1013800096FF00200790089007A90D48FFF7D8FCAA
:1013900008B1FEF78CFF602000904FF4FA700190C6
:1013A000002002900490002269460548FFF7AFFE36
:1013B00008B1FEF77CFF0248FFF778FE0DB000BDD4
:1013C0001000002000BFFEE770477047704710B55F
:1013D000FFF788F810BD000000B593B0302107A8D2
:1013E000FEF726FF142102A8FEF722FF00BF00200F
:1013F00001901D48006840F080501B490860084675
:10140000006800F08050019000BF00BF00BF0020C6
:1014100001901648006840F480401449086008466E
:10142000006800F48040019000BF00BF02200790D8
:1014300001200A9010200B9000200D9007A8FFF7C4
:101440003FFA08B1FEF733FF0F200290002003900F
:10145000049005900690002102A8FFF719F908B141
:10146000FEF725FF13B000BD403802400070004079
:101470001448006840F4700012490860124800687F
:1014800040F001001049086000200F490831086051
:101490000D4800680D4908400B4908600C48091DBB
:1014A0000860081F006820F48020091F08600020E1
:1014B00005490C3108604FF000600249803908602E
:1014C0007047000088ED00E000380240FFFFF6FEA4
:1014D0001030002410B50248FFF71DFD10BD0000BC
:1014E0001000002010B50268294B98420ED0B0F1D0
:1014F000804F0BD0274B984208D0274B984205D0FD
:10150000264B984202D0264B984203D122F070021B
:101510004B681A431E4B984220D0B0F1804F1DD02B
:101520001C4B98421AD01C4B984217D01B4B984228
:1015300014D01B4B984211D01A4B98420ED01A4B24
:1015400098420BD0194B984208D0194B984205D0BD
:10155000184B984202D0184B984203D122F44072A3
:10156000CB681A4322F080034C6943EA040202600C
:101570008B68C3620B688362054B984202D0084BAC
:10158000984201D10B6903630123436110BD000040
:10159000000001400004004000080040000C004032
:1015A0000004014000400140004401400048014067
:1015B00000180040001C00400020004030B501F041
:1015C0001F05012404FA05F3046A9C430462046ABB
:1015D00001F01F0502FA05F52C43046230BD30B559
:1015E0000C46816821F47F4142EA032525432943C3
:1015F000816030BD0A46816821F0700142F0070326
:10160000194381607047000030B5056A25F0010577
:101610000562026A4368846924F0700424F00304BC
:101620000D682C4322F002028D682A43104DA84217
:1016300000D103E00F4DA84206D100BF22F00802FE
:10164000CD682A4322F00402094DA84202D0094D78
:10165000A84207D123F4807323F400734D692B4310
:101660008D692B43436084614D684563026230BDE0
:10167000000001400004014030B5056A25F0100566
:101680000562026A4368846924F4E04424F44074E7
:101690000D6844EA052422F020028D6842EA051212
:1016A000124DA84200D103E0114DA84207D100BF5E
:1016B00022F08002CD6842EA051222F040020B4D72
:1016C000A84202D00A4DA84209D123F4806323F432
:1016D00000634D6943EA85038D6943EA85034360EE
:1016E00084614D688563026230BD000000000140E6
:1016F0000004014030B5056A25F480750562026A70
:101700004368C46924F0700424F003040D682C437A
:1017100022F400728D6842EA0522124DA84200D1DF
:1017200003E0114DA84207D100BF22F40062CD684A
:1017300042EA052222F480620A4DA84202D00A4DF4
:10174000A84209D123F4805323F400534D6943EA9E
:1017500005138D6943EA05134360C4614D68C56391
:10176000026230BD000001400004014030B5056A4E
:1017700025F480550562036A4468C26922F4E04298
:1017800022F440720D6842EA052223F400538D686A
:1017900043EA0533084DA84202D0084DA84204D1BF
:1017A00024F480444D6944EA85144460C2614D6864
:1017B0000564036230BD00000000014000040140E8
:1017C00030B50B461446026A056A25F0010505622C
:1017D000816921F0F00141EA041122F00A021A4362
:1017E0008161026230BD30B50B461446056A25F0B2
:1017F000100505628169026A21F4704141EA0431F1
:1018000022F0A00242EA03128161026230BD00BFF1
:10181000FEE7000002480068C0F3022070470000A5
:101820000CED00E010B5002804DB0A07130E054A92
:10183000135406E00A07140E034A00F00F031B1F9F
:10184000D45410BD00E400E018ED00E002E008C848
:10185000121F08C1002AFAD170477047002001E02A
:1018600001C1121F002AFBD170470000FEF746FE9F
:10187000FFF7B2FDFFF740FDFFF752FD11E0002436
:101880000CE02046FFF714FD00210648FFF7E0FCBE
:101890006420FEF70DFD04F1190084B2B4F5FA7F5F
:1018A000EFDBECE71000002000000000000000006B
:1018B00001020304060708090000000001020304F6
:1018C000E018000800000020100000004C1800087C
:1018D000F018000810000020400400005C18000808
:1018E0000000000010000000010000000024F400CF
:040000050800018965
:00000001FF
