:020000040800F2
:10000000400400209D0100084F100008170F000851
:100010004D100008A9020008151200080000000099
:10002000000000000000000000000000B710000801
:10003000AB02000800000000511000083511000854
:10004000B7010008B7010008B7010008B7010008B0
:10005000B7010008B7010008B7010008B7010008A0
:10006000B7010008B7010008B7010008B701000890
:10007000B7010008B7010008B7010008B701000880
:10008000B7010008B7010008B7010008B701000870
:10009000B7010008B7010008B7010008B701000860
:1000A000B7010008B7010008B7010008B701000850
:1000B000B7010008B7010008B7010008B701000840
:1000C000B7010008B7010008B7010008B701000830
:1000D000B7010008B7010008B7010008B701000820
:1000E000B7010008B7010008B7010008B701000810
:1000F000B7010008B7010008B7010008B701000800
:10010000B7010008B7010008B7010008B7010008EF
:10011000B7010008B7010008B7010008B7010008DF
:10012000B7010008B7010008B7010008B7010008CF
:10013000B70100080000000000000000B70100083F
:10014000B7010008B7010008B7010008B7010008AF
:10015000B7010008B7010008B7010008B70100089F
:10016000B7010008B7010008B7010008B70100088F
:10017000B7010008B70100080000000000000000FF
:10018000B7010008B7010008DFF80CD000F07AF8DA
:1001900000480047551200084004002006488047E8
:1001A00006480047FEE7FEE7FEE7FEE7FEE7FEE75C
:1001B000FEE7FEE7FEE7FEE7C1110008890100083F
:1001C0002DE9F05F0546002092469B46884606468C
:1001D000814640241BE0284641464746224600F01F
:1001E00041F853465A46C01A914110D31146184659
:1001F000224600F028F82D1A67EB01084F462246E8
:100200000120002100F01FF817EB00094E41201ECD
:10021000A4F10104DFDC484631462A464346BDE8E6
:10022000F09FD2B201E000F8012B491EFBD27047CB
:100230000022F6E710B513460A4604461946FFF7B2
:10024000F0FF204610BD202A04DB203A00FA02F11C
:10025000002070479140C2F1200320FA03F31943B4
:1002600090407047202A04DB203A21FA02F0002156
:10027000704721FA02F3D040C2F1200291400843B6
:1002800019467047064C074D06E0E06840F0010350
:1002900094E8070098471034AC42F6D3FFF778FF94
:1002A0003C1300085C130008FEE7704770B5044675
:1002B00000F0ECF80546601C02D0044800780444C5
:1002C00000F0E4F8401BA042FAD370BD10000020FB
:1002D0002DE9F84FDFF87CB100224FF001084FF014
:1002E000030A4FF00F090BF1040E00BF0B6808FA68
:1002F00002F42340A3426ED14D68022D01D0122D8D
:100300000ED1D50800EB850CDCF820505607F70E0F
:1003100009FA07F6B5430E69BE402E43CCF82060BB
:10032000066855000F790AFA05FC07F0030726EA6C
:100330000C06AF40374307604E68012E05D0022EF1
:1003400003D0112E01D0122E0ED18668CF6826EA76
:100350000C06AF40374387604668A6430C79C4F368
:100360000014944034434460C6688C6826EA0C0646
:10037000AC403443C4604C68E40065D5364C256815
:1003800045F480452560246822F0030504F4804488
:100390000094324C2E19D6F8084895072F0F09FA09
:1003A00007F5AC432E4DA84201D1002524E02D4D88
:1003B000A84201D101251FE02B4DA84201D1022501
:1003C0001AE02A4DA84201D1032515E0284DA84284
:1003D00002D1042510E037E0264DA84201D10525C1
:1003E0000AE0254DA84201D1062505E0234DA8428B
:1003F00001D1072500E00825BD402543C6F808586F
:10040000DBF800405D464E689C43F60300D51C4374
:100410002C60DEF8004075464E689C43B60300D55C
:100420001C432C600B4D08352C684E689C43F6022B
:1004300000D51C432C60074D0C352C684E689C433E
:10044000B60200D51C432C60521C102AFFF44EAF9C
:10045000BDE8F88F003C01404438024000300140C4
:10046000000002400004024000080240000C02406C
:10047000001002400014024000180240001C02401C
:100480000AB1816170470904FBE7000001488068F8
:100490007047000010000020024881680278114473
:1004A00081607047100000200B4810B5016841F4CE
:1004B00000710160016841F480610160016841F4EC
:1004C00080710160032000F061F8002000F006F860
:1004D00000F024F8002010BD003C024070B50D4D26
:1004E00004464FF47A712878B1FBF0F00A490968A4
:1004F000B1FBF0F000F0FBFC48B9102C07D2002251
:100500002146501E00F022F800206C6070BD0120D2
:1005100070BD0000100000201C0000200A4808B533
:10052000016841F480410160006800F4804000905F
:100530000548001F016841F080510160006800F02B
:100540008050009008BD000044380240F0B40E4BCB
:100550001B680C46C3F30223C3F10705042D00D921
:100560000425191D072901D2002300E0DB1E012606
:1005700006FA05F1491E214099409E40761E16401C
:100580003143F0BC00F047BE0CED00E0064900F03E
:10059000070208684FF6FF03184040EA0220034AAA
:1005A00010430860704700000CED00E00000FA0501
:1005B0002DE9F843054600684FF00109C1074FF0E7
:1005C000000601D1400727D5DFF80C81C8F8686024
:1005D000FFF75CFF0746414C05E000BFFFF756FF01
:1005E000C01B022857D820680001F7D46868810131
:1005F000287A41EA0070394984310860C8F8689067
:10060000FFF744FF074604E0FFF740FFC01B022846
:1006100041D820680001F7D52878800752D52F48A7
:100620004030016841F08051016000682C4C00F0BE
:1006300080500090206840F480702060FFF726FF13
:10064000074604E0FFF722FFC01B022823D82068DA
:10065000C005F7D5214C7034206810F4407020D0CC
:10066000A98901F4407181421BD020681D4920F402
:100670004070C1F800900E6020602068C00710D064
:10068000FFF704FF064641F2883707E0FFF7FEFE5A
:10069000801BB84202D90320BDE8F8832068800798
:1006A000F4D5E9680D48C1F301220830032A0BD0C4
:1006B000016821F4F81101602068A989C1F30B01D8
:1006C000084320600020E7E70268074B22F4F81295
:1006D00019400A430260EFE7000047420038024039
:1006E00000700040400E4742FFFCFF0F2DE9F0472D
:1006F0000E46050065D0DFF81481D8F80000F7B287
:1007000000F00F00B04207D288F80070D8F800005F
:1007100000F00F00B04254D128683D4C810712D53B
:10072000400703D5206840F4E05020602878000797
:1007300003D5206840F4604020602068A96820F05C
:10074000F000084320602878C0072DD03049686841
:100750000839012812D0022813D0032811D00968C3
:10076000890700292DDA216821F003010143216066
:10077000FFF78CFE814641F2883A0EE00968890352
:10078000EFE709688901ECE7FFF780FEA0EB0901BC
:10079000514502D90320BDE8F0872068696800F060
:1007A0000C00B0EB810FEFD1D8F80010404601F0FB
:1007B0000F01B14207D90770006800F00F00B04286
:1007C00001D00120E7E72878400705D52068E968CF
:1007D00020F4E050084320602878000706D5206800
:1007E000296920F4604040EAC100206000F016F85A
:1007F0002168084AC1F30311515CC84006490860EA
:100800000020FFF76BFE0020C5E70000003C02401F
:10081000083802402C1300081C000020154810B5B1
:10082000006810F00C02144813D01449042A0FD0A9
:10083000082A0ED10F4C241F2268236802F03F02C1
:100840005B0207D52068C0F38810A0FB010106E019
:10085000084610BD2168C1F38811A1FB00010023E7
:10086000FFF7AEFC2168C1F30141491C4900B0FB10
:10087000F1F010BD083802400024F40040787D01FA
:100880002DE9F84F050076D02878DFF8F8B2BE4C95
:10089000C00749D0DBF800105846C1F38101012997
:1008A00008D00068C0F3810002280AD1201D00682A
:1008B000400206D52068800336D568680028E2D05B
:1008C00032E06868B0F5803F10D0B0F5A02F206806
:1008D00010D020F480302060206820F48020206038
:1008E0006868A0B1FFF7D2FD06460CE0206840F42E
:1008F0008030F4E740F480202060F7E7FFF7C6FD82
:10090000801B642873D820688003F7D50CE0FFF7BC
:10091000BDFD064605E000BFFFF7B8FD801B64285B
:10092000F0D820688003F7D42878DFF86082800749
:100930004FF000093ED5DBF80010584611F00C0FBF
:1009400009D00068C0F3810002280BD18D48001F38
:100950000068400206D42068800715D5E8680128A1
:1009600009D111E0E868B8B10120C8F80000FFF72C
:100970008DFD064605E002E1FFF788FD801B022899
:10098000C0D820688007F7D52068296920F0F800D2
:1009900040EAC10020600DE0C8F80090FFF776FD46
:1009A000064604E0FFF772FD801B02281FD820686E
:1009B0008007F7D42878000722D5724E74486969F9
:1009C0006C3671B101210160FFF760FD074604E05C
:1009D000FFF75CFDC01B022809D830688007F7D5F7
:1009E0000EE0C0F80090FFF751FD074605E083E0F8
:1009F000FFF74CFDC01B02287ED830688007F7D473
:100A00002878400768D5DFF87CA100270AF1380A6A
:100A1000DAF80000C0000BD4DAF8001041F0805181
:100A2000CAF80010DAF80000012700F080500090AA
:100A3000584E3068C00510D4306840F48070306083
:100A4000FFF724FD009005E0FFF720FD0099401A14
:100A5000022851D83068C005F6D54A4EA8686836D5
:100A600001280FD00528306810D020F00100306038
:100A7000306820F004003060A868B8B1FFF706FDC8
:100A800000900FE0306840F00100F4E740F004000F
:100A90003060F7E7FFF7FAFC0099411A41F288301D
:100AA000814264D830688007F4D50EE0FFF7EEFC91
:100AB000009007E0FFF7EAFC0099411A41F2883004
:100AC000814254D830688007F4D42FB1DAF800108E
:100AD00021F08051CAF80010A869C0B3DBF80010FB
:100AE000C1F3810102294AD00228484607D0C8F83C
:100AF0006000FFF7CBFC00E039E005463AE04746EE
:100B0000C8F86000FFF7C2FC064604E0FFF7BEFC31
:100B1000801B02282BD820688001F7D4D5E9070173
:100B20000843A96A1C4A490802EB01416A6A41EA82
:100B30008211084395F82C1040EA01611148001F0A
:100B4000016001203866FFF7A1FC054605E014E0CE
:100B5000FFF79CFC401B022809D820688001F7D5CC
:100B60000BE000BFFFF792FC401B022802D90320D4
:100B7000BDE8F88F20688001F4D40020F8E7012058
:100B8000F6E7000008380240003802400000474203
:100B9000800E4742007000400000FFFF10B5027F4A
:100BA000012A1FD001220277022343770468CA2357
:100BB000636204685323636203689C6824F400241E
:100BC0009C6003689C680C439C6001688B6843F4DC
:100BD00000038B600368FF2159624277002101778F
:100BE000084610BD022010BD10B50B460168896A89
:100BF000596001680969C1F30E01996000680168D4
:100C00000E480140C1F305401870C1F306245C7022
:100C100001F07F049C70402404EA1141D97052B95C
:100C200000F017FA1870587800F013FA5870987896
:100C300000F00FFA9870002010BD00007F7F7F0049
:100C400070B5040002D0607F10B106E0012070BDD5
:100C500000202077204600F049F8022060772168C4
:100C6000CA204862216853204862204600F006FAF4
:100C7000FF25042618BB206881681B4A114081604B
:100C80002168886862681043D4E904231A4310433A
:100C900088602168E068086120680169228941EA6A
:100CA000024101612068C16821F08001C1602068B3
:100CB0008068800607D4204600F0FEF818B120684E
:100CC00045626677C2E72068016C21F480210164E7
:100CD0002068016CA269114301642068456201200B
:100CE0006077002070BD0000BFFF8FFF00680349E0
:100CF000884202D102490120086070470028004064
:100D00003C0E47422DE9F0470446007F0B46012880
:100D10001FD04FF0010984F81C9002206077DAB1EF
:100D20009878D97840EA014558781978000240EA65
:100D3000413005432168CA20486221685320486237
:100D4000204600F09BF90026FF274FF0040860BB07
:100D50001AE00220BDE8F0875878C10603D500F0FC
:100D6000EF000A305870D87800F07CF90204587807
:100D700000F078F942EA0022987800F073F9024313
:100D8000187842EA4035D5E70F48054020684560AD
:100D90002068C16821F08001C160206880688006F9
:100DA0000AD4204600F088F830B12068476284F801
:100DB0001D8026770120CDE72068476284F81D90CA
:100DC00026770020C6E700003FFFFF002DE9F0472F
:100DD0000446007F0D46012827D04FF0010A84F811
:100DE0001CA0022060772068002680684FEA4060DF
:100DF000F2B1002800DBEE70A878297840EA0147BC
:100E00006878E978000240EA014007432168CA2077
:100E10004862216853204862204600F02FF94FF0C5
:100E2000FF084FF00409A0BB16E00220BDE8F087E0
:100E3000002800DBEE70287800F014F902046878CE
:100E400000F010F942EA0022A87800F00BF9024302
:100E5000E87842EA0047D9E716480740206807606B
:100E60002068816821F480218160D5E9030108436D
:100E700021688A68104388602068C16821F0800179
:100E8000C1602068806880060BD4204600F014F80A
:100E900038B12168C1F8248084F81D90267701209C
:100EA000C4E72168C1F8248084F81DA026770020BB
:100EB000BCE700007F7F7F0070B504460068C16812
:100EC00021F0A001C160FFF7E1FA05464FF47A7600
:100ED00007E000BFFFF7DAFA401BB04201D9032058
:100EE00070BD2068C0688006F4D5002070BD10B5C4
:100EF000401EB0F1807F01D3012010BD4FF0E024EF
:100F000060610F21601700F086F90020A0610720C2
:100F10002061002010BDFEE72DE9F04387B01421C9
:100F20006846FFF785F927480024016841F004016D
:100F30000160016801F004010591016841F00101BF
:100F40000160016801F001010591016841F00201B1
:100F5000016000681C4F00F00200059000220F2184
:100F60003846FFF78DFADFF864804FF473460022AD
:100F700031464046FFF784FADFF854900022C02142
:100F80004846FFF77DFA0F2000900125CDE9015476
:100F9000694638460394FFF79BF90096CDE9015462
:100FA000694640460394FFF793F9C0200090CDE9CD
:100FB0000154694648460394FFF78AF907B0BDE833
:100FC000F08300003038024000000240000402407C
:100FD0000008024010B586B014216846FFF728F9D2
:100FE0001948002417490594C0E900147F21816045
:100FF000FF21C0E9031444618461FFF721FE8DF8ED
:1010000000408DF801408DF80240039400226946AB
:101010000D480494FFF7DAFE01208DF814008DF8D6
:1010200015008DF8160013208DF81700002205A971
:101030000548FFF767FE4FF400210348FFF7AEFDB8
:1010400006B010BD0028004020000020FEE77047D9
:101050007047010901EB810100F00F0000EB410036
:10106000C0B27047002102E00A38C0B2491C0A2809
:10107000FAD2090740EA11607047000070B50446D3
:101080000068C168490614D44FF0FF31C160FFF712
:10109000FDF905464FF47A7607E000BFFFF7F6F951
:1010A000401BB04201D9032070BD2068C0684006D3
:1010B000F4D5002070BD704770B504461B4D000686
:1010C0004FF4004101222846FFF7DAF960064FF499
:1010D000804101222846FFF7D3F9A0064FF40051C2
:1010E00001222846FFF7CCF9E006A9140122284680
:1010F000FFF7C6F92007691501222846FFF7C0F956
:101100006007A91501222846FFF7BAF9084DA00784
:10111000012280212846FFF7B3F9E0072846BDE801
:10112000704001224021FFF7ABB9000000040240EB
:1011300000080240FFF7B0B910B596B030216846FC
:10114000FFF776F814210CA8FFF772F800241A486C
:101150001194129413941494016841F08051016029
:10116000006800F0805015901448016841F48041F7
:1011700001600068102100F4804015900A20009062
:101180000120CDE90301CDE905046846FFF778FBAE
:101190000F20CDE90C040E940F9400210CA810949C
:1011A000FFF7A4FA022011900002149011A8FFF793
:1011B000FFF916B010BD000040380240007000403A
:1011C0001048016841F4700101600F48016841F066
:1011D000010101600C4A00210832116002680B4BCA
:1011E0001A400260031D0A4A1A60026822F4802233
:1011F000026005480C3001600249580680390860D9
:101200007047000088ED00E000380240FFFFF6FE66
:1012100010300024FEE70907090E002804DB00F166
:10122000E02080F80014704700F00F0000F1E0208B
:1012300080F8141D704702E008C8121F08C1002A78
:10124000FAD170477047002001E001C1121F002A47
:10125000FBD17047FFF728F9FFF76EFFFFF75CFE41
:10126000FFF7B8FE2E4F01220F213846FFF708F98D
:101270002C4E0A25002221462B48FFF7B5FC002200
:1012800001213846FFF7FCF82078B0FBF5F0305C20
:10129000FFF712FF3220FFF709F801221146384606
:1012A000FFF7EEF8002202213846FFF7E9F8207830
:1012B000B0FBF5F105FB1100305CFFF7FDFE3220BD
:1012C000FEF7F4FF012202213846FFF7D9F8002289
:1012D00004213846FFF7D4F86078B0FBF5F0305CB5
:1012E000FFF7EAFE3220FEF7E1FF01220421384633
:1012F000FFF7C6F8002208213846FFF7C1F86078EA
:10130000B0FBF5F105FB1100305CFFF7D5FE322094
:10131000FEF7CCFF012208213846FFF7B1F8A9E714
:10132000000002400000002020000020000000001B
:101330000000000001020304060708095C1300080E
:101340000000002020000000361200087C13000876
:10135000200000202004000046120008C0F9A4B0BC
:10136000999282F880908883A7A1868E0100000060
:0C13700010000000000000000024F40049
:040000050800018965
:00000001FF
